{
  "contractName": "GreenNFTData",
  "abi": [
    {
      "inputs": [],
      "stateMutability": "nonpayable",
      "type": "constructor"
    },
    {
      "anonymous": false,
      "inputs": [
        {
          "indexed": true,
          "internalType": "address",
          "name": "greenNFT",
          "type": "address"
        },
        {
          "indexed": false,
          "internalType": "uint256",
          "name": "buyableCarbonCredits",
          "type": "uint256"
        }
      ],
      "name": "GreenNFTEmissonDataUpdated",
      "type": "event"
    },
    {
      "anonymous": false,
      "inputs": [
        {
          "indexed": true,
          "internalType": "address",
          "name": "greenNFT",
          "type": "address"
        },
        {
          "indexed": false,
          "internalType": "enum GreenNFTDataCommons.GreenNFTStatus",
          "name": "newStatus",
          "type": "uint8"
        }
      ],
      "name": "GreenNFTStatusUpdated",
      "type": "event"
    },
    {
      "inputs": [
        {
          "internalType": "uint256",
          "name": "",
          "type": "uint256"
        }
      ],
      "name": "auditors",
      "outputs": [
        {
          "internalType": "address",
          "name": "",
          "type": "address"
        }
      ],
      "stateMutability": "view",
      "type": "function",
      "constant": true
    },
    {
      "inputs": [
        {
          "internalType": "uint256",
          "name": "",
          "type": "uint256"
        }
      ],
      "name": "claims",
      "outputs": [
        {
          "internalType": "uint256",
          "name": "projectId",
          "type": "uint256"
        },
        {
          "internalType": "uint256",
          "name": "co2Reductions",
          "type": "uint256"
        },
        {
          "internalType": "uint256",
          "name": "startOfPeriod",
          "type": "uint256"
        },
        {
          "internalType": "uint256",
          "name": "endOfPeriod",
          "type": "uint256"
        },
        {
          "internalType": "string",
          "name": "referenceDocument",
          "type": "string"
        },
        {
          "internalType": "bool",
          "name": "audited",
          "type": "bool"
        }
      ],
      "stateMutability": "view",
      "type": "function",
      "constant": true
    },
    {
      "inputs": [
        {
          "internalType": "uint256",
          "name": "",
          "type": "uint256"
        }
      ],
      "name": "greenNFTAddresses",
      "outputs": [
        {
          "internalType": "address",
          "name": "",
          "type": "address"
        }
      ],
      "stateMutability": "view",
      "type": "function",
      "constant": true
    },
    {
      "inputs": [
        {
          "internalType": "address",
          "name": "",
          "type": "address"
        }
      ],
      "name": "greenNFTEmissonDataByAddress",
      "outputs": [
        {
          "internalType": "uint256",
          "name": "co2Emissions",
          "type": "uint256"
        },
        {
          "internalType": "uint256",
          "name": "co2Reductions",
          "type": "uint256"
        },
        {
          "internalType": "uint256",
          "name": "carbonCredits",
          "type": "uint256"
        },
        {
          "internalType": "uint256",
          "name": "buyableCarbonCredits",
          "type": "uint256"
        }
      ],
      "stateMutability": "view",
      "type": "function",
      "constant": true
    },
    {
      "inputs": [
        {
          "internalType": "uint256",
          "name": "",
          "type": "uint256"
        }
      ],
      "name": "greenNFTEmissonDatas",
      "outputs": [
        {
          "internalType": "uint256",
          "name": "co2Emissions",
          "type": "uint256"
        },
        {
          "internalType": "uint256",
          "name": "co2Reductions",
          "type": "uint256"
        },
        {
          "internalType": "uint256",
          "name": "carbonCredits",
          "type": "uint256"
        },
        {
          "internalType": "uint256",
          "name": "buyableCarbonCredits",
          "type": "uint256"
        }
      ],
      "stateMutability": "view",
      "type": "function",
      "constant": true
    },
    {
      "inputs": [
        {
          "internalType": "uint256",
          "name": "",
          "type": "uint256"
        }
      ],
      "name": "greenNFTMetadatas",
      "outputs": [
        {
          "internalType": "uint256",
          "name": "projectId",
          "type": "uint256"
        },
        {
          "internalType": "uint256",
          "name": "claimId",
          "type": "uint256"
        },
        {
          "internalType": "contract GreenNFT",
          "name": "greenNFT",
          "type": "address"
        },
        {
          "internalType": "address",
          "name": "projectOwner",
          "type": "address"
        },
        {
          "internalType": "address",
          "name": "auditor",
          "type": "address"
        },
        {
          "internalType": "uint256",
          "name": "timestampOfissuedDate",
          "type": "uint256"
        },
        {
          "internalType": "uint256",
          "name": "startOfPeriod",
          "type": "uint256"
        },
        {
          "internalType": "uint256",
          "name": "endOfPeriod",
          "type": "uint256"
        },
        {
          "internalType": "string",
          "name": "auditedReport",
          "type": "string"
        },
        {
          "internalType": "enum GreenNFTDataCommons.GreenNFTStatus",
          "name": "greenNFTStatus",
          "type": "uint8"
        }
      ],
      "stateMutability": "view",
      "type": "function",
      "constant": true
    },
    {
      "inputs": [
        {
          "internalType": "address",
          "name": "",
          "type": "address"
        }
      ],
      "name": "greenNFTMetadatasByAddress",
      "outputs": [
        {
          "internalType": "uint256",
          "name": "projectId",
          "type": "uint256"
        },
        {
          "internalType": "uint256",
          "name": "claimId",
          "type": "uint256"
        },
        {
          "internalType": "contract GreenNFT",
          "name": "greenNFT",
          "type": "address"
        },
        {
          "internalType": "address",
          "name": "projectOwner",
          "type": "address"
        },
        {
          "internalType": "address",
          "name": "auditor",
          "type": "address"
        },
        {
          "internalType": "uint256",
          "name": "timestampOfissuedDate",
          "type": "uint256"
        },
        {
          "internalType": "uint256",
          "name": "startOfPeriod",
          "type": "uint256"
        },
        {
          "internalType": "uint256",
          "name": "endOfPeriod",
          "type": "uint256"
        },
        {
          "internalType": "string",
          "name": "auditedReport",
          "type": "string"
        },
        {
          "internalType": "enum GreenNFTDataCommons.GreenNFTStatus",
          "name": "greenNFTStatus",
          "type": "uint8"
        }
      ],
      "stateMutability": "view",
      "type": "function",
      "constant": true
    },
    {
      "inputs": [
        {
          "internalType": "uint256",
          "name": "",
          "type": "uint256"
        }
      ],
      "name": "projects",
      "outputs": [
        {
          "internalType": "address",
          "name": "projectOwner",
          "type": "address"
        },
        {
          "internalType": "string",
          "name": "projectName",
          "type": "string"
        },
        {
          "internalType": "uint256",
          "name": "co2Emissions",
          "type": "uint256"
        }
      ],
      "stateMutability": "view",
      "type": "function",
      "constant": true
    },
    {
      "inputs": [
        {
          "internalType": "address",
          "name": "auditor",
          "type": "address"
        }
      ],
      "name": "addAuditor",
      "outputs": [
        {
          "internalType": "bool",
          "name": "",
          "type": "bool"
        }
      ],
      "stateMutability": "nonpayable",
      "type": "function"
    },
    {
      "inputs": [
        {
          "internalType": "address",
          "name": "_projectOwner",
          "type": "address"
        },
        {
          "internalType": "string",
          "name": "_projectName",
          "type": "string"
        },
        {
          "internalType": "uint256",
          "name": "_co2Emissions",
          "type": "uint256"
        }
      ],
      "name": "saveProject",
      "outputs": [
        {
          "internalType": "uint256",
          "name": "",
          "type": "uint256"
        }
      ],
      "stateMutability": "nonpayable",
      "type": "function"
    },
    {
      "inputs": [
        {
          "internalType": "uint256",
          "name": "_projectId",
          "type": "uint256"
        },
        {
          "internalType": "uint256",
          "name": "_co2Reductions",
          "type": "uint256"
        },
        {
          "internalType": "uint256",
          "name": "_startOfPeriod",
          "type": "uint256"
        },
        {
          "internalType": "uint256",
          "name": "_endOfPeriod",
          "type": "uint256"
        },
        {
          "internalType": "string",
          "name": "_referenceDocument",
          "type": "string"
        }
      ],
      "name": "saveClaim",
      "outputs": [
        {
          "internalType": "uint256",
          "name": "",
          "type": "uint256"
        }
      ],
      "stateMutability": "nonpayable",
      "type": "function"
    },
    {
      "inputs": [
        {
          "internalType": "uint256",
          "name": "_claimId",
          "type": "uint256"
        }
      ],
      "name": "markClaimAsAudited",
      "outputs": [
        {
          "internalType": "bool",
          "name": "",
          "type": "bool"
        }
      ],
      "stateMutability": "nonpayable",
      "type": "function"
    },
    {
      "inputs": [],
      "name": "getUnauditedClaims",
      "outputs": [
        {
          "components": [
            {
              "internalType": "uint256",
              "name": "projectId",
              "type": "uint256"
            },
            {
              "internalType": "uint256",
              "name": "co2Reductions",
              "type": "uint256"
            },
            {
              "internalType": "uint256",
              "name": "startOfPeriod",
              "type": "uint256"
            },
            {
              "internalType": "uint256",
              "name": "endOfPeriod",
              "type": "uint256"
            },
            {
              "internalType": "string",
              "name": "referenceDocument",
              "type": "string"
            },
            {
              "internalType": "bool",
              "name": "audited",
              "type": "bool"
            }
          ],
          "internalType": "struct GreenNFTDataCommons.Claim[]",
          "name": "",
          "type": "tuple[]"
        }
      ],
      "stateMutability": "view",
      "type": "function",
      "constant": true
    },
    {
      "inputs": [],
      "name": "getAllClaims",
      "outputs": [
        {
          "components": [
            {
              "internalType": "uint256",
              "name": "projectId",
              "type": "uint256"
            },
            {
              "internalType": "uint256",
              "name": "co2Reductions",
              "type": "uint256"
            },
            {
              "internalType": "uint256",
              "name": "startOfPeriod",
              "type": "uint256"
            },
            {
              "internalType": "uint256",
              "name": "endOfPeriod",
              "type": "uint256"
            },
            {
              "internalType": "string",
              "name": "referenceDocument",
              "type": "string"
            },
            {
              "internalType": "bool",
              "name": "audited",
              "type": "bool"
            }
          ],
          "internalType": "struct GreenNFTDataCommons.Claim[]",
          "name": "",
          "type": "tuple[]"
        }
      ],
      "stateMutability": "view",
      "type": "function",
      "constant": true
    },
    {
      "inputs": [
        {
          "internalType": "uint256",
          "name": "_projectId",
          "type": "uint256"
        },
        {
          "internalType": "uint256",
          "name": "_claimId",
          "type": "uint256"
        },
        {
          "internalType": "contract GreenNFT",
          "name": "_greenNFT",
          "type": "address"
        },
        {
          "internalType": "address",
          "name": "_projectOwner",
          "type": "address"
        },
        {
          "internalType": "address",
          "name": "_auditor",
          "type": "address"
        },
        {
          "internalType": "uint256",
          "name": "_startOfPeriod",
          "type": "uint256"
        },
        {
          "internalType": "uint256",
          "name": "_endOfPeriod",
          "type": "uint256"
        },
        {
          "internalType": "string",
          "name": "_auditedReport",
          "type": "string"
        }
      ],
      "name": "saveGreenNFTMetadata",
      "outputs": [
        {
          "internalType": "bool",
          "name": "",
          "type": "bool"
        }
      ],
      "stateMutability": "nonpayable",
      "type": "function"
    },
    {
      "inputs": [
        {
          "internalType": "uint256",
          "name": "_co2Emissions",
          "type": "uint256"
        },
        {
          "internalType": "uint256",
          "name": "_co2Reductions",
          "type": "uint256"
        },
        {
          "internalType": "uint256",
          "name": "_carbonCredits",
          "type": "uint256"
        }
      ],
      "name": "saveGreenNFTEmissonData",
      "outputs": [
        {
          "internalType": "bool",
          "name": "",
          "type": "bool"
        }
      ],
      "stateMutability": "nonpayable",
      "type": "function"
    },
    {
      "inputs": [
        {
          "internalType": "contract GreenNFT",
          "name": "_greenNFT",
          "type": "address"
        },
        {
          "internalType": "enum GreenNFTDataCommons.GreenNFTStatus",
          "name": "_newStatus",
          "type": "uint8"
        }
      ],
      "name": "updateStatus",
      "outputs": [
        {
          "internalType": "bool",
          "name": "",
          "type": "bool"
        }
      ],
      "stateMutability": "nonpayable",
      "type": "function"
    },
    {
      "inputs": [
        {
          "internalType": "uint256",
          "name": "projectId",
          "type": "uint256"
        }
      ],
      "name": "getProject",
      "outputs": [
        {
          "components": [
            {
              "internalType": "address",
              "name": "projectOwner",
              "type": "address"
            },
            {
              "internalType": "string",
              "name": "projectName",
              "type": "string"
            },
            {
              "internalType": "uint256",
              "name": "co2Emissions",
              "type": "uint256"
            }
          ],
          "internalType": "struct GreenNFTDataCommons.Project",
          "name": "_projectId",
          "type": "tuple"
        }
      ],
      "stateMutability": "view",
      "type": "function",
      "constant": true
    },
    {
      "inputs": [
        {
          "internalType": "uint256",
          "name": "claimId",
          "type": "uint256"
        }
      ],
      "name": "getClaim",
      "outputs": [
        {
          "components": [
            {
              "internalType": "uint256",
              "name": "projectId",
              "type": "uint256"
            },
            {
              "internalType": "uint256",
              "name": "co2Reductions",
              "type": "uint256"
            },
            {
              "internalType": "uint256",
              "name": "startOfPeriod",
              "type": "uint256"
            },
            {
              "internalType": "uint256",
              "name": "endOfPeriod",
              "type": "uint256"
            },
            {
              "internalType": "string",
              "name": "referenceDocument",
              "type": "string"
            },
            {
              "internalType": "bool",
              "name": "audited",
              "type": "bool"
            }
          ],
          "internalType": "struct GreenNFTDataCommons.Claim",
          "name": "_claim",
          "type": "tuple"
        }
      ],
      "stateMutability": "view",
      "type": "function",
      "constant": true
    },
    {
      "inputs": [
        {
          "internalType": "uint256",
          "name": "greenNFTMetadataId",
          "type": "uint256"
        }
      ],
      "name": "getGreenNFTMetadata",
      "outputs": [
        {
          "components": [
            {
              "internalType": "uint256",
              "name": "projectId",
              "type": "uint256"
            },
            {
              "internalType": "uint256",
              "name": "claimId",
              "type": "uint256"
            },
            {
              "internalType": "contract GreenNFT",
              "name": "greenNFT",
              "type": "address"
            },
            {
              "internalType": "address",
              "name": "projectOwner",
              "type": "address"
            },
            {
              "internalType": "address",
              "name": "auditor",
              "type": "address"
            },
            {
              "internalType": "uint256",
              "name": "timestampOfissuedDate",
              "type": "uint256"
            },
            {
              "internalType": "uint256",
              "name": "startOfPeriod",
              "type": "uint256"
            },
            {
              "internalType": "uint256",
              "name": "endOfPeriod",
              "type": "uint256"
            },
            {
              "internalType": "string",
              "name": "auditedReport",
              "type": "string"
            },
            {
              "internalType": "enum GreenNFTDataCommons.GreenNFTStatus",
              "name": "greenNFTStatus",
              "type": "uint8"
            }
          ],
          "internalType": "struct GreenNFTDataCommons.GreenNFTMetadata",
          "name": "_greenNFTMetadata",
          "type": "tuple"
        }
      ],
      "stateMutability": "view",
      "type": "function",
      "constant": true
    },
    {
      "inputs": [
        {
          "internalType": "contract GreenNFT",
          "name": "greenNFT",
          "type": "address"
        }
      ],
      "name": "getGreenNFTMetadataIndex",
      "outputs": [
        {
          "internalType": "uint256",
          "name": "_greenNFTMetadataIndex",
          "type": "uint256"
        }
      ],
      "stateMutability": "view",
      "type": "function",
      "constant": true
    },
    {
      "inputs": [
        {
          "internalType": "contract GreenNFT",
          "name": "greenNFT",
          "type": "address"
        }
      ],
      "name": "getGreenNFTMetadataByNFTAddress",
      "outputs": [
        {
          "components": [
            {
              "internalType": "uint256",
              "name": "projectId",
              "type": "uint256"
            },
            {
              "internalType": "uint256",
              "name": "claimId",
              "type": "uint256"
            },
            {
              "internalType": "contract GreenNFT",
              "name": "greenNFT",
              "type": "address"
            },
            {
              "internalType": "address",
              "name": "projectOwner",
              "type": "address"
            },
            {
              "internalType": "address",
              "name": "auditor",
              "type": "address"
            },
            {
              "internalType": "uint256",
              "name": "timestampOfissuedDate",
              "type": "uint256"
            },
            {
              "internalType": "uint256",
              "name": "startOfPeriod",
              "type": "uint256"
            },
            {
              "internalType": "uint256",
              "name": "endOfPeriod",
              "type": "uint256"
            },
            {
              "internalType": "string",
              "name": "auditedReport",
              "type": "string"
            },
            {
              "internalType": "enum GreenNFTDataCommons.GreenNFTStatus",
              "name": "greenNFTStatus",
              "type": "uint8"
            }
          ],
          "internalType": "struct GreenNFTDataCommons.GreenNFTMetadata",
          "name": "_greenNFTMetadata",
          "type": "tuple"
        }
      ],
      "stateMutability": "view",
      "type": "function",
      "constant": true
    },
    {
      "inputs": [
        {
          "internalType": "uint256",
          "name": "greenNFTMetadataId",
          "type": "uint256"
        }
      ],
      "name": "getGreenNFTEmissonData",
      "outputs": [
        {
          "components": [
            {
              "internalType": "uint256",
              "name": "co2Emissions",
              "type": "uint256"
            },
            {
              "internalType": "uint256",
              "name": "co2Reductions",
              "type": "uint256"
            },
            {
              "internalType": "uint256",
              "name": "carbonCredits",
              "type": "uint256"
            },
            {
              "internalType": "uint256",
              "name": "buyableCarbonCredits",
              "type": "uint256"
            }
          ],
          "internalType": "struct GreenNFTDataCommons.GreenNFTEmissonData",
          "name": "_greenNFTEmissonData",
          "type": "tuple"
        }
      ],
      "stateMutability": "view",
      "type": "function",
      "constant": true
    },
    {
      "inputs": [
        {
          "internalType": "contract GreenNFT",
          "name": "greenNFT",
          "type": "address"
        }
      ],
      "name": "getGreenNFTEmissonDataIndex",
      "outputs": [
        {
          "internalType": "uint256",
          "name": "_greenNFTEmissonDataIndex",
          "type": "uint256"
        }
      ],
      "stateMutability": "view",
      "type": "function",
      "constant": true
    },
    {
      "inputs": [
        {
          "internalType": "contract GreenNFT",
          "name": "greenNFT",
          "type": "address"
        }
      ],
      "name": "getGreenNFTEmissonDataByNFTAddress",
      "outputs": [
        {
          "components": [
            {
              "internalType": "uint256",
              "name": "co2Emissions",
              "type": "uint256"
            },
            {
              "internalType": "uint256",
              "name": "co2Reductions",
              "type": "uint256"
            },
            {
              "internalType": "uint256",
              "name": "carbonCredits",
              "type": "uint256"
            },
            {
              "internalType": "uint256",
              "name": "buyableCarbonCredits",
              "type": "uint256"
            }
          ],
          "internalType": "struct GreenNFTDataCommons.GreenNFTEmissonData",
          "name": "_greenNFTEmissonData",
          "type": "tuple"
        }
      ],
      "stateMutability": "view",
      "type": "function",
      "constant": true
    },
    {
      "inputs": [],
      "name": "getGreenNFTMetadatas",
      "outputs": [
        {
          "components": [
            {
              "internalType": "uint256",
              "name": "projectId",
              "type": "uint256"
            },
            {
              "internalType": "uint256",
              "name": "claimId",
              "type": "uint256"
            },
            {
              "internalType": "contract GreenNFT",
              "name": "greenNFT",
              "type": "address"
            },
            {
              "internalType": "address",
              "name": "projectOwner",
              "type": "address"
            },
            {
              "internalType": "address",
              "name": "auditor",
              "type": "address"
            },
            {
              "internalType": "uint256",
              "name": "timestampOfissuedDate",
              "type": "uint256"
            },
            {
              "internalType": "uint256",
              "name": "startOfPeriod",
              "type": "uint256"
            },
            {
              "internalType": "uint256",
              "name": "endOfPeriod",
              "type": "uint256"
            },
            {
              "internalType": "string",
              "name": "auditedReport",
              "type": "string"
            },
            {
              "internalType": "enum GreenNFTDataCommons.GreenNFTStatus",
              "name": "greenNFTStatus",
              "type": "uint8"
            }
          ],
          "internalType": "struct GreenNFTDataCommons.GreenNFTMetadata[]",
          "name": "_greenNFTMetadatas",
          "type": "tuple[]"
        }
      ],
      "stateMutability": "view",
      "type": "function",
      "constant": true
    },
    {
      "inputs": [],
      "name": "getGreenNFTEmissonDatas",
      "outputs": [
        {
          "components": [
            {
              "internalType": "uint256",
              "name": "co2Emissions",
              "type": "uint256"
            },
            {
              "internalType": "uint256",
              "name": "co2Reductions",
              "type": "uint256"
            },
            {
              "internalType": "uint256",
              "name": "carbonCredits",
              "type": "uint256"
            },
            {
              "internalType": "uint256",
              "name": "buyableCarbonCredits",
              "type": "uint256"
            }
          ],
          "internalType": "struct GreenNFTDataCommons.GreenNFTEmissonData[]",
          "name": "_greenNFTEmissonDatas",
          "type": "tuple[]"
        }
      ],
      "stateMutability": "view",
      "type": "function",
      "constant": true
    },
    {
      "inputs": [],
      "name": "getAuditors",
      "outputs": [
        {
          "internalType": "address[]",
          "name": "_auditors",
          "type": "address[]"
        }
      ],
      "stateMutability": "view",
      "type": "function",
      "constant": true
    },
    {
      "inputs": [
        {
          "internalType": "uint256",
          "name": "index",
          "type": "uint256"
        }
      ],
      "name": "getAuditor",
      "outputs": [
        {
          "internalType": "address",
          "name": "_auditor",
          "type": "address"
        }
      ],
      "stateMutability": "view",
      "type": "function",
      "constant": true
    }
  ],
  "bytecode": "0x608060405234801561001057600080fd5b50612372806100206000396000f3fe608060405234801561001057600080fd5b50600436106101cf5760003560e01c806380b9083411610104578063b09c0781116100a2578063e2248fd611610071578063e2248fd61461044a578063e429cef11461045d578063f0f3f2c814610470578063fd6cf5a714610490576101cf565b8063b09c078114610407578063c44f0b111461040f578063dc0daef314610424578063df542dac14610437576101cf565b806393f80ff4116100de57806393f80ff414610386578063981ca38614610399578063a888c2cd146103c2578063aadf6d4f146103e7576101cf565b806380b908341461034b5780638e87e27e14610360578063906ab71b14610373576101cf565b806357de4a6e1161017157806366d6c02e1161014b57806366d6c02e146102ef57806367cc911f146103125780636e94191114610325578063729b006314610338576101cf565b806357de4a6e146102a55780635aef2447146102ba5780635b23c27d146102da576101cf565b8063242f42b4116101ad578063242f42b41461023f5780633fbd34c91461025f578063432be3e21461027f57806344c5bbf814610292576101cf565b8063107046bd146101d457806317471b7d146101ff5780631b8b444c1461021f575b600080fd5b6101e76101e2366004611d27565b6104a3565b6040516101f693929190611ffc565b60405180910390f35b61021261020d366004611c72565b61056d565b6040516101f69190612241565b61023261022d366004611d27565b6105c5565b6040516101f69190611fe8565b61025261024d366004611dd9565b6105ec565b6040516101f69190612172565b61027261026d366004611c72565b6106cb565b6040516101f691906121dc565b61025261028d366004611d27565b610742565b6102526102a0366004611cec565b61078b565b6102ad61082b565b6040516101f69190612030565b6102cd6102c8366004611d27565b61088d565b6040516101f691906121c9565b6102e26109b5565b6040516101f6919061207d565b6103026102fd366004611c72565b610af0565b6040516101f694939291906122be565b610212610320366004611c95565b610b17565b610232610333366004611d27565b610bef565b610272610346366004611d27565b610bfc565b610353610c11565b6040516101f691906120dd565b61021261036e366004611c72565b610c8f565b610212610381366004611e04565b610cdd565b610232610394366004611d27565b610e2d565b6103ac6103a7366004611c72565b610e57565b6040516101f69a9998979695949392919061224a565b6103d56103d0366004611d27565b610f42565b6040516101f6969594939291906122d9565b6103fa6103f5366004611d27565b611026565b6040516101f691906121ea565b6102e261118a565b610417611390565b6040516101f6919061211f565b6103fa610432366004611c72565b6114fa565b6103ac610445366004611d27565b61150d565b610252610458366004611d3f565b6115ce565b61025261046b366004611c72565b61189e565b61048361047e366004611d27565b6118f1565b6040516101f691906121fd565b61030261049e366004611d27565b6119f7565b600081815481106104b057fe5b600091825260209182902060039091020180546001808301805460408051601f60026000199685161561010002969096019093169490940491820187900487028401870190528083526001600160a01b03909316955092939092919083018282801561055d5780601f106105325761010080835404028352916020019161055d565b820191906000526020600020905b81548152906001019060200180831161054057829003601f168201915b5050505050908060020154905083565b60008181805b6008548110156105bb57826001600160a01b03166008828154811061059457fe5b6000918252602090912001546001600160a01b031614156105b3578091505b600101610573565b509150505b919050565b600781815481106105d257fe5b6000918252602090912001546001600160a01b0316905081565b60006105f6611a5f565b5060408051608081018252948552602085019384528401828152606085019283526003805460018101825560009190915294517fc2575a0e9e593c00f959f8c92f12db2869c3395a3b0502d05e2516446f71f85b60049096029586015592517fc2575a0e9e593c00f959f8c92f12db2869c3395a3b0502d05e2516446f71f85c85015591517fc2575a0e9e593c00f959f8c92f12db2869c3395a3b0502d05e2516446f71f85d840155517fc2575a0e9e593c00f959f8c92f12db2869c3395a3b0502d05e2516446f71f85e9092019190915590565b6106d3611a5f565b60006106de8361056d565b90506106e8611a5f565b600382815481106106f557fe5b906000526020600020906004020160405180608001604052908160008201548152602001600182015481526020016002820154815260200160038201548152505090508092505050919050565b600080610750836001611a2e565b905060006001828154811061076157fe5b60009182526020909120600560069092020101805460ff1916600190811790915592505050919050565b60008061079784610c8f565b90506000600282815481106107a857fe5b90600052602060002090600a02019050838160090160006101000a81548160ff021916908360028111156107d857fe5b0217905550846001600160a01b03167f118cf2c827f6733b46159d57d55a1dcaf008da062b139f0fc96639fd8529fc3c85604051610816919061217d565b60405180910390a26001925050505b92915050565b6060600780548060200260200160405190810160405280929190818152602001828054801561088357602002820191906000526020600020905b81546001600160a01b03168152600190910190602001808311610865575b5050505050905090565b610895611a87565b60006108a2836001611a2e565b90506108ac611a87565b600182815481106108b957fe5b90600052602060002090600602016040518060c001604052908160008201548152602001600182015481526020016002820154815260200160038201548152602001600482018054600181600116156101000203166002900480601f0160208091040260200160405190810160405280929190818152602001828054600181600116156101000203166002900480156109935780601f1061096857610100808354040283529160200191610993565b820191906000526020600020905b81548152906001019060200180831161097657829003601f168201915b50505091835250506005919091015460ff161515602090910152949350505050565b60606001805480602002602001604051908101604052809291908181526020016000905b82821015610ae757838290600052602060002090600602016040518060c001604052908160008201548152602001600182015481526020016002820154815260200160038201548152602001600482018054600181600116156101000203166002900480601f016020809104026020016040519081016040528092919081815260200182805460018160011615610100020316600290048015610abd5780601f10610a9257610100808354040283529160200191610abd565b820191906000526020600020905b815481529060010190602001808311610aa057829003601f168201915b50505091835250506005919091015460ff16151560209182015290825260019290920191016109d9565b50505050905090565b600a6020526000908152604090208054600182015460028301546003909301549192909184565b6004805460010190556000610b2a611abf565b50604080516060810182526001600160a01b03868116825260208083018781529383018690526000805460018101825590805283517f290decd9548b62a8d60345a988386fc84ba6bc95484008f6362f93160ef3e563600390920291820180546001600160a01b031916919094161783559351805193948594610bd5937f290decd9548b62a8d60345a988386fc84ba6bc95484008f6362f93160ef3e5649092019290910190611ae9565b506040820151816002015550506004549150509392505050565b600881815481106105d257fe5b610c04611a5f565b60006106de836001611a2e565b60606003805480602002602001604051908101604052809291908181526020016000905b82821015610ae7578382906000526020600020906004020160405180608001604052908160008201548152602001600182015481526020016002820154815260200160038201548152505081526020019060010190610c35565b60008181805b6008548110156105bb57826001600160a01b031660088281548110610cb657fe5b6000918252602090912001546001600160a01b03161415610cd5578091505b600101610c95565b6005805460010190556000610cf0611a87565b506040805160c08101825287815260208082018881529282018781526060830187815260808401878152600060a08601819052600180548082018255915285517fb10e2d527612073b26eecdfd717e6a320cf44b4afac2b0732d9fcbe2b7fa0cf6600690920291820190815596517fb10e2d527612073b26eecdfd717e6a320cf44b4afac2b0732d9fcbe2b7fa0cf782015592517fb10e2d527612073b26eecdfd717e6a320cf44b4afac2b0732d9fcbe2b7fa0cf884015590517fb10e2d527612073b26eecdfd717e6a320cf44b4afac2b0732d9fcbe2b7fa0cf9830155518051939485949093610e05937fb10e2d527612073b26eecdfd717e6a320cf44b4afac2b0732d9fcbe2b7fa0cfa01920190611ae9565b5060a091909101516005918201805460ff191691151591909117905554979650505050505050565b600060078281548110610e3c57fe5b6000918252602090912001546001600160a01b031692915050565b6009602090815260009182526040918290208054600180830154600280850154600386015460048701546005880154600689015460078a015460088b0180548e516101009b8216159b909b02600019011697909704601f81018d90048d028a018d01909d528c8952989b969a6001600160a01b039586169a948616999590931697919690959192830182828015610f2f5780601f10610f0457610100808354040283529160200191610f2f565b820191906000526020600020905b815481529060010190602001808311610f1257829003601f168201915b5050506009909301549192505060ff168a565b60018181548110610f4f57fe5b9060005260206000209060060201600091509050806000015490806001015490806002015490806003015490806004018054600181600116156101000203166002900480601f0160208091040260200160405190810160405280929190818152602001828054600181600116156101000203166002900480156110135780601f10610fe857610100808354040283529160200191611013565b820191906000526020600020905b815481529060010190602001808311610ff657829003601f168201915b5050506005909301549192505060ff1686565b61102e611b67565b600061103b836001611a2e565b9050611045611b67565b6002828154811061105257fe5b60009182526020918290206040805161014081018252600a9390930290910180548352600180820154848601526002808301546001600160a01b03908116868601526003840154811660608701526004840154166080860152600583015460a0860152600683015460c0860152600783015460e086015260088301805485516101009482161585026000190190911692909204601f8101889004880283018801909552848252949592949186019390928301828280156111535780601f1061112857610100808354040283529160200191611153565b820191906000526020600020905b81548152906001019060200180831161113657829003601f168201915b5050509183525050600982015460209091019060ff16600281111561117457fe5b600281111561117f57fe5b905250949350505050565b60606000805b6001548110156111d157600181815481106111a757fe5b600091825260209091206005600690920201015460ff166111c9576001909101905b600101611190565b5060608167ffffffffffffffff811180156111eb57600080fd5b5060405190808252806020026020018201604052801561122557816020015b611212611a87565b81526020019060019003908161120a5790505b5090506000805b600154811015611387576001818154811061124357fe5b600091825260209091206005600690920201015460ff1661137f576001818154811061126b57fe5b90600052602060002090600602016040518060c001604052908160008201548152602001600182015481526020016002820154815260200160038201548152602001600482018054600181600116156101000203166002900480601f0160208091040260200160405190810160405280929190818152602001828054600181600116156101000203166002900480156113455780601f1061131a57610100808354040283529160200191611345565b820191906000526020600020905b81548152906001019060200180831161132857829003601f168201915b50505091835250506005919091015460ff161515602090910152835184908490811061136d57fe5b60209081029190910101526001909101905b60010161122c565b50909250505090565b60606002805480602002602001604051908101604052809291908181526020016000905b82821015610ae75760008481526020908190206040805161014081018252600a860290920180548352600180820154848601526002808301546001600160a01b03908116868601526003840154811660608701526004840154166080860152600583015460a0860152600683015460c0860152600783015460e086015260088301805485516101009482161585026000190190911692909204601f8101889004880283018801909552848252949592949186019390928301828280156114bb5780601f10611490576101008083540402835291602001916114bb565b820191906000526020600020905b81548152906001019060200180831161149e57829003601f168201915b5050509183525050600982015460209091019060ff1660028111156114dc57fe5b60028111156114e757fe5b81525050815260200190600101906113b4565b611502611b67565b600061103b83610c8f565b6002818154811061151a57fe5b6000918252602091829020600a91909102018054600180830154600280850154600386015460048701546005880154600689015460078a015460088b018054604080516101009c8316159c909c026000190190911698909804601f81018e90048e028b018e01909852878a52999c50969a6001600160a01b039586169a9486169995909316979196909590949192830182828015610f2f5780601f10610f0457610100808354040283529160200191610f2f565b60068054600101905560006115e1611b67565b6040518061014001604052808b81526020018a8152602001896001600160a01b03168152602001886001600160a01b03168152602001876001600160a01b031681526020014281526020018681526020018581526020018481526020016000600281111561164b57fe5b9052600280546001810182556000919091528151600a9091027f405787fa12a823e0f2b7631cc41b3ba8828b3321ca811111fa75cd3aa3bb5ace81019182556020808401517f405787fa12a823e0f2b7631cc41b3ba8828b3321ca811111fa75cd3aa3bb5acf83015560408401517f405787fa12a823e0f2b7631cc41b3ba8828b3321ca811111fa75cd3aa3bb5ad0830180546001600160a01b039283166001600160a01b03199182161790915560608601517f405787fa12a823e0f2b7631cc41b3ba8828b3321ca811111fa75cd3aa3bb5ad18501805491841691831691909117905560808601517f405787fa12a823e0f2b7631cc41b3ba8828b3321ca811111fa75cd3aa3bb5ad28501805491909316911617905560a08401517f405787fa12a823e0f2b7631cc41b3ba8828b3321ca811111fa75cd3aa3bb5ad383015560c08401517f405787fa12a823e0f2b7631cc41b3ba8828b3321ca811111fa75cd3aa3bb5ad483015560e08401517f405787fa12a823e0f2b7631cc41b3ba8828b3321ca811111fa75cd3aa3bb5ad58301556101008401518051949550859461181b937f405787fa12a823e0f2b7631cc41b3ba8828b3321ca811111fa75cd3aa3bb5ad601929190910190611ae9565b5061012082015160098201805460ff1916600183600281111561183a57fe5b021790555050600880546001810182556000919091527ff3f7a9fe364faab93b216da50a3214154f22a0a2b415b23a84c8169e8b636ee30180546001600160a01b0319166001600160a01b039a909a16999099179098555098975050505050505050565b6007805460018101825560009182527fa66cc928b5edb82af9bd49922954155ab7b0942694bea4ce44661d9a8736c6880180546001600160a01b0319166001600160a01b03939093169290921790915590565b6118f9611abf565b6000611906836001611a2e565b9050611910611abf565b6000828154811061191d57fe5b600091825260209182902060408051606081018252600390930290910180546001600160a01b03168352600180820180548451601f600260001995841615610100029590950190921693909304908101879004870283018701909452838252939491938583019391929091908301828280156119da5780601f106119af576101008083540402835291602001916119da565b820191906000526020600020905b8154815290600101906020018083116119bd57829003601f168201915b505050918352505060029190910154602090910152949350505050565b60038181548110611a0457fe5b60009182526020909120600490910201805460018201546002830154600390930154919350919084565b600082821115611a595760405162461bcd60e51b8152600401611a5090612192565b60405180910390fd5b50900390565b6040518060800160405280600081526020016000815260200160008152602001600081525090565b6040518060c0016040528060008152602001600081526020016000815260200160008152602001606081526020016000151581525090565b604051806060016040528060006001600160a01b0316815260200160608152602001600081525090565b828054600181600116156101000203166002900490600052602060002090601f016020900481019282601f10611b2a57805160ff1916838001178555611b57565b82800160010185558215611b57579182015b82811115611b57578251825591602001919060010190611b3c565b50611b63929150611bdf565b5090565b604051806101400160405280600081526020016000815260200160006001600160a01b0316815260200160006001600160a01b0316815260200160006001600160a01b031681526020016000815260200160008152602001600081526020016060815260200160006002811115611bda57fe5b905290565b5b80821115611b635760008155600101611be0565b600082601f830112611c04578081fd5b813567ffffffffffffffff80821115611c1b578283fd5b604051601f8301601f191681016020018281118282101715611c3b578485fd5b604052828152925082848301602001861015611c5657600080fd5b8260208601602083013760006020848301015250505092915050565b600060208284031215611c83578081fd5b8135611c8e81612324565b9392505050565b600080600060608486031215611ca9578182fd5b8335611cb481612324565b9250602084013567ffffffffffffffff811115611ccf578283fd5b611cdb86828701611bf4565b925050604084013590509250925092565b60008060408385031215611cfe578182fd5b8235611d0981612324565b9150602083013560038110611d1c578182fd5b809150509250929050565b600060208284031215611d38578081fd5b5035919050565b600080600080600080600080610100898b031215611d5b578384fd5b88359750602089013596506040890135611d7481612324565b95506060890135611d8481612324565b94506080890135611d9481612324565b935060a0890135925060c0890135915060e089013567ffffffffffffffff811115611dbd578182fd5b611dc98b828c01611bf4565b9150509295985092959890939650565b600080600060608486031215611ded578283fd5b505081359360208301359350604090920135919050565b600080600080600060a08688031215611e1b578081fd5b85359450602086013593506040860135925060608601359150608086013567ffffffffffffffff811115611e4d578182fd5b611e5988828901611bf4565b9150509295509295909350565b6001600160a01b03169052565b60038110611e7d57fe5b9052565b60008151808452815b81811015611ea657602081850181015186830182015201611e8a565b81811115611eb75782602083870101525b50601f01601f19169290920160200192915050565b600081518352602082015160208401526040820151604084015260608201516060840152608082015160c06080850152611f0960c0850182611e81565b60a0938401511515949093019390935250919050565b805182526020810151602083015260408101516040830152606081015160608301525050565b600061014082518452602083015160208501526040830151611f6a6040860182611e66565b506060830151611f7d6060860182611e66565b506080830151611f906080860182611e66565b5060a083015160a085015260c083015160c085015260e083015160e0850152610100808401518282870152611fc783870182611e81565b9250505061012080840151611fde82870182611e73565b5090949350505050565b6001600160a01b0391909116815260200190565b6001600160a01b038416815260606020820181905260009061202090830185611e81565b9050826040830152949350505050565b6020808252825182820181905260009190848201906040850190845b818110156120715783516001600160a01b03168352928401929184019160010161204c565b50909695505050505050565b6000602080830181845280855180835260408601915060408482028701019250838701855b828110156120d057603f198886030184526120be858351611ecc565b945092850192908501906001016120a2565b5092979650505050505050565b6020808252825182820181905260009190848201906040850190845b818110156120715761210c838551611f1f565b92840192608092909201916001016120f9565b6000602080830181845280855180835260408601915060408482028701019250838701855b828110156120d057603f19888603018452612160858351611f45565b94509285019290850190600101612144565b901515815260200190565b6020810161218a83612319565b825292915050565b6020808252601e908201527f536166654d6174683a207375627472616374696f6e206f766572666c6f770000604082015260600190565b600060208252611c8e6020830184611ecc565b608081016108258284611f1f565b600060208252611c8e6020830184611f45565b602080825282516001600160a01b0316828201528201516060604083015260009061222b6080840182611e81565b9050604084015160608401528091505092915050565b90815260200190565b60006101408c83528b602084015260018060a01b03808c166040850152808b166060850152808a166080850152508760a08401528660c08401528560e08401528061010084015261229d81840186611e81565b9150506122a983612319565b6101208301529b9a5050505050505050505050565b93845260208401929092526040830152606082015260800190565b600087825286602083015285604083015284606083015260c0608083015261230460c0830185611e81565b905082151560a0830152979650505050505050565b80600381106105c057fe5b6001600160a01b038116811461233957600080fd5b5056fea264697066735822122043b29c14f369812d9120878908ab5809eebf88a770e389837edb3ee8b3efdda664736f6c634300060c0033",
  "immutableReferences": {},
  "source": "// SPDX-License-Identifier: MIT\npragma solidity 0.6.12;\npragma experimental ABIEncoderV2;\n\nimport {SafeMath} from \"@openzeppelin/contracts/math/SafeMath.sol\";\nimport {GreenNFTDataCommons} from \"./commons/GreenNFTDataCommons.sol\";\nimport {GreenNFT} from \"./GreenNFT.sol\";\n\n/**\n * @notice - This is the storage contract for GreenNFTs\n */\ncontract GreenNFTData is GreenNFTDataCommons {\n    using SafeMath for uint;\n\n    uint currentProjectId;\n    uint currentClaimId;\n    uint currentGreenNFTMetadataId;\n\n    // Auditor\n    address[] public auditors;\n\n    // All GreenNFTs addresses\n    address[] public greenNFTAddresses;\n\n    mapping(address => GreenNFTMetadata) public greenNFTMetadatasByAddress;\n    mapping(address => GreenNFTEmissonData) public greenNFTEmissonDataByAddress;\n\n    // Events\n    event GreenNFTStatusUpdated(\n        address indexed greenNFT,\n        GreenNFTStatus newStatus\n    );\n\n    event GreenNFTEmissonDataUpdated(\n        address indexed greenNFT,\n        uint256 buyableCarbonCredits\n    );\n\n    constructor() public {}\n\n    /**\n     * @notice - Register a auditor\n     */\n    function addAuditor(address auditor) public returns (bool) {\n        auditors.push(auditor);\n    }\n\n    /**\n     * @notice - Save a project and return the projectId\n     */\n    function saveProject(\n        address _projectOwner,\n        string memory _projectName,\n        uint _co2Emissions\n    ) public returns (uint) {\n        currentProjectId++;\n        Project memory project = Project({\n            projectOwner: _projectOwner,\n            projectName: _projectName,\n            co2Emissions: _co2Emissions\n        });\n        projects.push(project);\n        return currentProjectId; // Return the new project ID after incrementing\n    }\n\n    /**\n     * @notice - Save a CO2 reduction claim and return the claimId\n     */\n    function saveClaim(\n        uint _projectId,\n        uint _co2Reductions,\n        uint _startOfPeriod,\n        uint _endOfPeriod,\n        string memory _referenceDocument\n    ) public returns (uint) {\n        currentClaimId++;\n        Claim memory claim = Claim({\n            projectId: _projectId,\n            co2Reductions: _co2Reductions,\n            startOfPeriod: _startOfPeriod,\n            endOfPeriod: _endOfPeriod,\n            referenceDocument: _referenceDocument,\n            audited: false // initially false\n        });\n        claims.push(claim);\n        return currentClaimId; // Return the new claim ID after incrementing\n    }\n\n    /**\n     * @notice - Mark a claim as audited\n     */\n    function markClaimAsAudited(uint _claimId) public returns (bool) {\n        uint index = _claimId.sub(1);\n        Claim storage claim = claims[index];\n        claim.audited = true;\n        return true;\n    }\n\n    /**\n     * @notice - Get all unaudited claims\n     */\n    function getUnauditedClaims() public view returns (Claim[] memory) {\n        uint unauditedCount;\n        for (uint i = 0; i < claims.length; i++) {\n            if (!claims[i].audited) {\n                unauditedCount++;\n            }\n        }\n\n        Claim[] memory unauditedClaims = new Claim[](unauditedCount);\n        uint index;\n        for (uint i = 0; i < claims.length; i++) {\n            if (!claims[i].audited) {\n                unauditedClaims[index] = claims[i];\n                index++;\n            }\n        }\n\n        return unauditedClaims;\n    }\n\n    /**\n     * @notice - Get all claims\n     */\n    function getAllClaims() public view returns (Claim[] memory) {\n        return claims;\n    }\n\n    /**\n     * @notice - Save metadata of a GreenNFT\n     */\n    function saveGreenNFTMetadata(\n        uint _projectId,\n        uint _claimId,\n        GreenNFT _greenNFT,\n        address _projectOwner,\n        address _auditor,\n        uint _startOfPeriod,\n        uint _endOfPeriod,\n        string memory _auditedReport\n    ) public returns (bool) {\n        currentGreenNFTMetadataId++;\n\n        // Save metadata of a GreenNFT\n        GreenNFTMetadata memory greenNFTMetadata = GreenNFTMetadata({\n            projectId: _projectId,\n            claimId: _claimId,\n            greenNFT: _greenNFT,\n            projectOwner: _projectOwner,\n            auditor: _auditor,\n            timestampOfissuedDate: now,\n            startOfPeriod: _startOfPeriod,\n            endOfPeriod: _endOfPeriod,\n            auditedReport: _auditedReport,\n            greenNFTStatus: GreenNFTStatus.Audited\n        });\n        greenNFTMetadatas.push(greenNFTMetadata);\n\n        // Update GreenNFTs addresses\n        greenNFTAddresses.push(address(_greenNFT));\n    }\n\n    // function updateBuyableCarbonCredits(\n    //     address greenNFTAddress,\n    //     uint256 orderOfCarbonCredits\n    // ) external onlyOwner {\n    //     GreenNFTEmissonData storage emissionData = greenNFTEmissonDataByAddress[\n    //         greenNFTAddress\n    //     ];\n    //     require(\n    //         emissionData.buyableCarbonCredits >= orderOfCarbonCredits,\n    //         \"Insufficient buyable carbon credits\"\n    //     );\n\n    //     emissionData.buyableCarbonCredits = emissionData\n    //         .buyableCarbonCredits\n    //         .sub(orderOfCarbonCredits);\n\n    //     emit GreenNFTEmissonDataUpdated(\n    //         greenNFTAddress,\n    //         emissionData.buyableCarbonCredits\n    //     );\n    // }\n\n    /**\n     * @notice - Save emission data of a GreenNFT\n     */\n    function saveGreenNFTEmissonData(\n        uint _co2Emissions,\n        uint _co2Reductions,\n        uint _carbonCredits\n    ) public returns (bool) {\n        // Save emission data of a GreenNFT\n        GreenNFTEmissonData memory greenNFTEmissonData = GreenNFTEmissonData({\n            co2Emissions: _co2Emissions,\n            co2Reductions: _co2Reductions,\n            carbonCredits: _carbonCredits,\n            buyableCarbonCredits: _carbonCredits // [Note]: Initially, carbonCredits and buyableCarbonCredits are equal amount\n        });\n        greenNFTEmissonDatas.push(greenNFTEmissonData);\n    }\n\n    /**\n     * @notice Update status (\"Sale\" or \"NotSale\")\n     */\n    function updateStatus(\n        GreenNFT _greenNFT,\n        GreenNFTStatus _newStatus\n    ) public returns (bool) {\n        // Identify the greenNFT's index\n        uint greenNFTMetadataIndex = getGreenNFTMetadataIndex(_greenNFT);\n\n        // Update the metadata of a GreenNFT\n        GreenNFTMetadata storage greenNFTMetadata = greenNFTMetadatas[\n            greenNFTMetadataIndex\n        ];\n        greenNFTMetadata.greenNFTStatus = _newStatus;\n\n        emit GreenNFTStatusUpdated(address(_greenNFT), _newStatus); // Emit an event to indicate status change\n\n        return true;\n    }\n    //-----------------\n    // Getter methods\n    //-----------------\n\n    function getProject(\n        uint projectId\n    ) public view returns (Project memory _projectId) {\n        uint index = projectId.sub(1);\n        Project memory project = projects[index];\n        return project;\n    }\n\n    function getClaim(uint claimId) public view returns (Claim memory _claim) {\n        uint index = claimId.sub(1);\n        Claim memory claim = claims[index];\n        return claim;\n    }\n\n    function getGreenNFTMetadata(\n        uint greenNFTMetadataId\n    ) public view returns (GreenNFTMetadata memory _greenNFTMetadata) {\n        uint index = greenNFTMetadataId.sub(1);\n        GreenNFTMetadata memory greenNFTMetadata = greenNFTMetadatas[index];\n        return greenNFTMetadata;\n    }\n\n    function getGreenNFTMetadataIndex(\n        GreenNFT greenNFT\n    ) public view returns (uint _greenNFTMetadataIndex) {\n        address GREEN_NFT = address(greenNFT);\n\n        // Identify member's index\n        uint greenNFTMetadataIndex;\n        for (uint i = 0; i < greenNFTAddresses.length; i++) {\n            if (greenNFTAddresses[i] == GREEN_NFT) {\n                greenNFTMetadataIndex = i;\n            }\n        }\n\n        return greenNFTMetadataIndex;\n    }\n\n    function getGreenNFTMetadataByNFTAddress(\n        GreenNFT greenNFT\n    ) public view returns (GreenNFTMetadata memory _greenNFTMetadata) {\n        address(greenNFT);\n\n        // Identify member's index\n        uint index = getGreenNFTMetadataIndex(greenNFT);\n\n        GreenNFTMetadata memory greenNFTMetadata = greenNFTMetadatas[index];\n        return greenNFTMetadata;\n    }\n\n    function getGreenNFTEmissonData(\n        uint greenNFTMetadataId\n    ) public view returns (GreenNFTEmissonData memory _greenNFTEmissonData) {\n        // [Note]: The GreenNFTEmissonData and the GreenNFTMetadata has same greenNFTMetadataId\n        uint index = greenNFTMetadataId.sub(1);\n        GreenNFTEmissonData memory greenNFTEmissonData = greenNFTEmissonDatas[\n            index\n        ];\n        return greenNFTEmissonData;\n    }\n\n    function getGreenNFTEmissonDataIndex(\n        GreenNFT greenNFT\n    ) public view returns (uint _greenNFTEmissonDataIndex) {\n        address GREEN_NFT = address(greenNFT);\n\n        // Identify member's index\n        uint greenNFTEmissonDataIndex;\n        for (uint i = 0; i < greenNFTAddresses.length; i++) {\n            if (greenNFTAddresses[i] == GREEN_NFT) {\n                greenNFTEmissonDataIndex = i;\n            }\n        }\n\n        return greenNFTEmissonDataIndex;\n    }\n\n    function getGreenNFTEmissonDataByNFTAddress(\n        GreenNFT greenNFT\n    ) public view returns (GreenNFTEmissonData memory _greenNFTEmissonData) {\n        address(greenNFT);\n\n        // Identify member's index\n        uint index = getGreenNFTEmissonDataIndex(greenNFT);\n\n        GreenNFTEmissonData memory greenNFTEmissonData = greenNFTEmissonDatas[\n            index\n        ];\n        return greenNFTEmissonData;\n    }\n\n    function getGreenNFTMetadatas()\n        public\n        view\n        returns (GreenNFTMetadata[] memory _greenNFTMetadatas)\n    {\n        return greenNFTMetadatas;\n    }\n\n    function getGreenNFTEmissonDatas()\n        public\n        view\n        returns (GreenNFTEmissonData[] memory _greenNFTEmissonDatas)\n    {\n        return greenNFTEmissonDatas;\n    }\n\n    function getAuditors() public view returns (address[] memory _auditors) {\n        return auditors;\n    }\n\n    function getAuditor(uint index) public view returns (address _auditor) {\n        return auditors[index];\n    }\n}\n",
  "sourcePath": "/home/saicharith/dev/carbon-credits-marketplace/smart-contract/contracts/GreenNFTData.sol",
  "compiler": {
    "name": "solc",
    "version": "0.6.12+commit.27d51765.Emscripten.clang"
  },
  "schemaVersion": "3.4.16",
  "updatedAt": "2024-05-07T19:58:26.007Z",
  "networkType": "ethereum",
  "devdoc": {
    "kind": "dev",
    "methods": {},
    "version": 1
  },
  "userdoc": {
    "kind": "user",
    "methods": {
      "addAuditor(address)": {
        "notice": "- Register a auditor"
      },
      "getAllClaims()": {
        "notice": "- Get all claims"
      },
      "getUnauditedClaims()": {
        "notice": "- Get all unaudited claims"
      },
      "markClaimAsAudited(uint256)": {
        "notice": "- Mark a claim as audited"
      },
      "saveClaim(uint256,uint256,uint256,uint256,string)": {
        "notice": "- Save a CO2 reduction claim and return the claimId"
      },
      "saveGreenNFTEmissonData(uint256,uint256,uint256)": {
        "notice": "- Save emission data of a GreenNFT"
      },
      "saveGreenNFTMetadata(uint256,uint256,address,address,address,uint256,uint256,string)": {
        "notice": "- Save metadata of a GreenNFT"
      },
      "saveProject(address,string,uint256)": {
        "notice": "- Save a project and return the projectId"
      },
      "updateStatus(address,uint8)": {
        "notice": "Update status (\"Sale\" or \"NotSale\")"
      }
    },
    "notice": "- This is the storage contract for GreenNFTs",
    "version": 1
  }
}