{
  "contractName": "GreenNFTFactory",
  "abi": [
    {
      "inputs": [
        {
          "internalType": "contract GreenNFTMarketPlace",
          "name": "_greenNFTMarketplace",
          "type": "address"
        },
        {
          "internalType": "contract GreenNFTData",
          "name": "_greenNFTData",
          "type": "address"
        },
        {
          "internalType": "contract CarbonCreditToken",
          "name": "_carbonCreditToken",
          "type": "address"
        }
      ],
      "stateMutability": "nonpayable",
      "type": "constructor"
    },
    {
      "anonymous": false,
      "inputs": [
        {
          "indexed": true,
          "internalType": "uint256",
          "name": "projectId",
          "type": "uint256"
        },
        {
          "indexed": true,
          "internalType": "uint256",
          "name": "claimId",
          "type": "uint256"
        },
        {
          "indexed": false,
          "internalType": "uint256",
          "name": "co2Reductions",
          "type": "uint256"
        },
        {
          "indexed": false,
          "internalType": "string",
          "name": "referenceDocument",
          "type": "string"
        }
      ],
      "name": "ClaimAudited",
      "type": "event"
    },
    {
      "anonymous": false,
      "inputs": [
        {
          "indexed": true,
          "internalType": "uint256",
          "name": "claimId",
          "type": "uint256"
        },
        {
          "indexed": true,
          "internalType": "address",
          "name": "claimant",
          "type": "address"
        }
      ],
      "name": "ClaimRegistered",
      "type": "event"
    },
    {
      "anonymous": false,
      "inputs": [
        {
          "indexed": false,
          "internalType": "uint256",
          "name": "projectId",
          "type": "uint256"
        },
        {
          "indexed": false,
          "internalType": "uint256",
          "name": "claimId",
          "type": "uint256"
        },
        {
          "indexed": false,
          "internalType": "contract GreenNFT",
          "name": "greenNFT",
          "type": "address"
        },
        {
          "indexed": false,
          "internalType": "uint256",
          "name": "carbonCredits",
          "type": "uint256"
        }
      ],
      "name": "GreenNFTCreated",
      "type": "event"
    },
    {
      "anonymous": false,
      "inputs": [
        {
          "indexed": true,
          "internalType": "address",
          "name": "previousOwner",
          "type": "address"
        },
        {
          "indexed": true,
          "internalType": "address",
          "name": "newOwner",
          "type": "address"
        }
      ],
      "name": "OwnershipTransferred",
      "type": "event"
    },
    {
      "anonymous": false,
      "inputs": [
        {
          "indexed": true,
          "internalType": "uint256",
          "name": "projectId",
          "type": "uint256"
        },
        {
          "indexed": true,
          "internalType": "address",
          "name": "projectOwner",
          "type": "address"
        }
      ],
      "name": "ProjectRegistered",
      "type": "event"
    },
    {
      "inputs": [],
      "name": "carbonCreditToken",
      "outputs": [
        {
          "internalType": "contract CarbonCreditToken",
          "name": "",
          "type": "address"
        }
      ],
      "stateMutability": "view",
      "type": "function",
      "constant": true
    },
    {
      "inputs": [],
      "name": "greenNFTData",
      "outputs": [
        {
          "internalType": "contract GreenNFTData",
          "name": "",
          "type": "address"
        }
      ],
      "stateMutability": "view",
      "type": "function",
      "constant": true
    },
    {
      "inputs": [],
      "name": "greenNFTMarketplace",
      "outputs": [
        {
          "internalType": "contract GreenNFTMarketPlace",
          "name": "",
          "type": "address"
        }
      ],
      "stateMutability": "view",
      "type": "function",
      "constant": true
    },
    {
      "inputs": [],
      "name": "owner",
      "outputs": [
        {
          "internalType": "address",
          "name": "",
          "type": "address"
        }
      ],
      "stateMutability": "view",
      "type": "function",
      "constant": true
    },
    {
      "inputs": [],
      "name": "renounceOwnership",
      "outputs": [],
      "stateMutability": "nonpayable",
      "type": "function"
    },
    {
      "inputs": [
        {
          "internalType": "address",
          "name": "newOwner",
          "type": "address"
        }
      ],
      "name": "transferOwnership",
      "outputs": [],
      "stateMutability": "nonpayable",
      "type": "function"
    },
    {
      "inputs": [
        {
          "internalType": "address",
          "name": "auditor",
          "type": "address"
        }
      ],
      "name": "registerAuditor",
      "outputs": [
        {
          "internalType": "bool",
          "name": "",
          "type": "bool"
        }
      ],
      "stateMutability": "nonpayable",
      "type": "function"
    },
    {
      "inputs": [
        {
          "internalType": "string",
          "name": "projectName",
          "type": "string"
        },
        {
          "internalType": "uint256",
          "name": "co2Emissions",
          "type": "uint256"
        }
      ],
      "name": "registerProject",
      "outputs": [
        {
          "internalType": "uint256",
          "name": "",
          "type": "uint256"
        }
      ],
      "stateMutability": "nonpayable",
      "type": "function"
    },
    {
      "inputs": [
        {
          "internalType": "uint256",
          "name": "projectId",
          "type": "uint256"
        },
        {
          "internalType": "uint256",
          "name": "co2Reductions",
          "type": "uint256"
        },
        {
          "internalType": "uint256",
          "name": "startOfPeriod",
          "type": "uint256"
        },
        {
          "internalType": "uint256",
          "name": "endOfPeriod",
          "type": "uint256"
        },
        {
          "internalType": "string",
          "name": "referenceDocument",
          "type": "string"
        }
      ],
      "name": "claimCO2Reductions",
      "outputs": [
        {
          "internalType": "uint256",
          "name": "",
          "type": "uint256"
        }
      ],
      "stateMutability": "nonpayable",
      "type": "function"
    },
    {
      "inputs": [
        {
          "internalType": "uint256",
          "name": "claimId",
          "type": "uint256"
        },
        {
          "internalType": "string",
          "name": "auditedReport",
          "type": "string"
        }
      ],
      "name": "auditClaim",
      "outputs": [
        {
          "internalType": "bool",
          "name": "",
          "type": "bool"
        }
      ],
      "stateMutability": "nonpayable",
      "type": "function"
    },
    {
      "inputs": [
        {
          "internalType": "uint256",
          "name": "claimId",
          "type": "uint256"
        },
        {
          "internalType": "contract GreenNFT",
          "name": "greenNFT",
          "type": "address"
        },
        {
          "internalType": "address",
          "name": "auditor",
          "type": "address"
        },
        {
          "internalType": "uint256",
          "name": "carbonCredits",
          "type": "uint256"
        },
        {
          "internalType": "string",
          "name": "auditedReport",
          "type": "string"
        }
      ],
      "name": "saveGreenNFTData",
      "outputs": [
        {
          "internalType": "bool",
          "name": "",
          "type": "bool"
        }
      ],
      "stateMutability": "nonpayable",
      "type": "function"
    },
    {
      "inputs": [
        {
          "internalType": "uint256",
          "name": "projectId",
          "type": "uint256"
        },
        {
          "internalType": "uint256",
          "name": "claimId",
          "type": "uint256"
        },
        {
          "internalType": "contract GreenNFT",
          "name": "greenNFT",
          "type": "address"
        },
        {
          "internalType": "address",
          "name": "_projectOwner",
          "type": "address"
        },
        {
          "internalType": "address",
          "name": "auditor",
          "type": "address"
        },
        {
          "internalType": "uint256",
          "name": "startOfPeriod",
          "type": "uint256"
        },
        {
          "internalType": "uint256",
          "name": "endOfPeriod",
          "type": "uint256"
        },
        {
          "internalType": "string",
          "name": "auditedReport",
          "type": "string"
        }
      ],
      "name": "_saveGreenNFTMetadata",
      "outputs": [
        {
          "internalType": "bool",
          "name": "",
          "type": "bool"
        }
      ],
      "stateMutability": "nonpayable",
      "type": "function"
    },
    {
      "inputs": [
        {
          "internalType": "uint256",
          "name": "co2Emissions",
          "type": "uint256"
        },
        {
          "internalType": "uint256",
          "name": "co2Reductions",
          "type": "uint256"
        },
        {
          "internalType": "uint256",
          "name": "carbonCredits",
          "type": "uint256"
        }
      ],
      "name": "_saveGreenNFTEmissonData",
      "outputs": [
        {
          "internalType": "bool",
          "name": "",
          "type": "bool"
        }
      ],
      "stateMutability": "nonpayable",
      "type": "function"
    },
    {
      "inputs": [],
      "name": "baseTokenURI",
      "outputs": [
        {
          "internalType": "string",
          "name": "",
          "type": "string"
        }
      ],
      "stateMutability": "pure",
      "type": "function",
      "constant": true
    },
    {
      "inputs": [
        {
          "internalType": "string",
          "name": "_auditedReport",
          "type": "string"
        }
      ],
      "name": "getTokenURI",
      "outputs": [
        {
          "internalType": "string",
          "name": "",
          "type": "string"
        }
      ],
      "stateMutability": "pure",
      "type": "function",
      "constant": true
    }
  ],
  "bytecode": "0x60806040523480156200001157600080fd5b50604051620041bd380380620041bd8339810160408190526200003491620000e1565b600062000040620000dd565b600080546001600160a01b0319166001600160a01b0383169081178255604051929350917f8be0079c531659141344cd1fd0a4f28419497f9722a3daafe3b4186f6b6457e0908290a350600280546001600160a01b03199081166001600160a01b0395861617918290556003805482169486169490941790935560048054841692851692909217909155600180549190931691161790556200014d565b3390565b600080600060608486031215620000f6578283fd5b8351620001038162000134565b6020850151909350620001168162000134565b6040850151909250620001298162000134565b809150509250925092565b6001600160a01b03811681146200014a57600080fd5b50565b614060806200015d6000396000f3fe60806040523480156200001157600080fd5b50600436106200010c5760003560e01c8063957e885911620000a5578063d3e1f6e3116200006f578063d3e1f6e31462000205578063d547cfb7146200022b578063df9a4f561462000235578063f2fde38b146200024c576200010c565b8063957e885914620001b6578063c225ce1b14620001cd578063c7470b1b14620001d7578063cef50b4714620001ee576200010c565b8063566bde7f11620000e7578063566bde7f146200017f57806366dea3581462000196578063715018a614620001a05780638da5cb5b14620001ac576200010c565b8063022a85b814620001115780631410b9091462000140578063225bfe6b1462000166575b600080fd5b62000128620001223660046200178a565b62000263565b604051620001379190620019da565b60405180910390f35b62000157620001513660046200156a565b620006e8565b60405162000137919062001b1a565b62000170620007bc565b6040516200013791906200191c565b62000128620001903660046200170e565b620007cb565b6200017062000948565b620001aa62000957565b005b62000170620009e7565b62000157620001c7366004620018a3565b620009f6565b6200017062000b87565b62000128620001e836600462001877565b62000b96565b62000128620001ff366004620017d3565b62000c2b565b6200021c620002163660046200152b565b62000ccf565b604051620001379190620019e5565b6200021c62000ce6565b620001286200024636600462001422565b62000d15565b620001aa6200025d36600462001422565b62000da4565b6000806060600360009054906101000a90046001600160a01b03166001600160a01b03166357de4a6e6040518163ffffffff1660e01b815260040160006040518083038186803b158015620002b757600080fd5b505afa158015620002cc573d6000803e3d6000fd5b505050506040513d6000823e601f3d908101601f19168201604052620002f6919081019062001460565b905060005b815181101562000328578181815181106200031257fe5b60209081029190910101519250600101620002fb565b50336001600160a01b038316146200035d5760405162461bcd60e51b8152600401620003549062001a40565b60405180910390fd5b60006060600360009054906101000a90046001600160a01b03166001600160a01b03166357de4a6e6040518163ffffffff1660e01b815260040160006040518083038186803b158015620003b057600080fd5b505afa158015620003c5573d6000803e3d6000fd5b505050506040513d6000823e601f3d908101601f19168201604052620003ef919081019062001460565b905060005b815181101562000530576003546040516324fe03fd60e21b81526001600160a01b03909116906393f80ff4906200043090849060040162001b1a565b60206040518083038186803b1580156200044957600080fd5b505afa1580156200045e573d6000803e3d6000fd5b505050506040513d601f19601f8201168201806040525081019062000484919062001441565b6001600160a01b0316336001600160a01b0316141562000527576003546040516324fe03fd60e21b81526001600160a01b03909116906393f80ff490620004d090849060040162001b1a565b60206040518083038186803b158015620004e957600080fd5b505afa158015620004fe573d6000803e3d6000fd5b505050506040513d601f19601f8201168201806040525081019062000524919062001441565b92505b600101620003f4565b50336001600160a01b038316146200055c5760405162461bcd60e51b8152600401620003549062001aac565b62000566620012e7565b600354604051635aef244760e01b81526001600160a01b0390911690635aef24479062000598908b9060040162001b1a565b60006040518083038186803b158015620005b157600080fd5b505afa158015620005c6573d6000803e3d6000fd5b505050506040513d6000823e601f3d908101601f19168201604052620005f09190810190620015b1565b805160208201516080830151600354604051632195f1f160e11b81529495509293919290916001600160a01b039091169063432be3e29062000637908e9060040162001b1a565b602060405180830381600087803b1580156200065257600080fd5b505af115801562000667573d6000803e3d6000fd5b505050506040513d601f19601f820116820180604052508101906200068d919062001509565b508a837fe054c3fc38be91593faca4132dd66807e623d14070b9a3ac45797ab78b497df98484604051620006c392919062001b23565b60405180910390a3620006d9838c848d62000e6e565b50505050505050505092915050565b6003546040516367cc911f60e01b8152600091339183916001600160a01b0316906367cc911f9062000723908590899089906004016200198b565b602060405180830381600087803b1580156200073e57600080fd5b505af115801562000753573d6000803e3d6000fd5b505050506040513d601f19601f82011682018060405250810190620007799190620016f5565b9050816001600160a01b0316817f3c60a40e4dbd5042a478d4b5bc4a4a2a6c6b32db1a59f163a6a875ae0c06d55860405160405180910390a39150505b92915050565b6003546001600160a01b031681565b6000620007d7620012e7565b600354604051635aef244760e01b81526001600160a01b0390911690635aef24479062000809908a9060040162001b1a565b60006040518083038186803b1580156200082257600080fd5b505afa15801562000837573d6000803e3d6000fd5b505050506040513d6000823e601f3d908101601f19168201604052620008619190810190620015b1565b80516040820151606083015160208401519394509192909190620008846200131f565b600354604051631e1e7e5960e31b81526001600160a01b039091169063f0f3f2c890620008b690889060040162001b1a565b60006040518083038186803b158015620008cf57600080fd5b505afa158015620008e4573d6000803e3d6000fd5b505050506040513d6000823e601f3d908101601f191682016040526200090e919081019062001660565b905062000926858d8d84600001518e89898f62000c2b565b50620009388160400151838b62000b96565b5050505050505095945050505050565b6004546001600160a01b031681565b6200096162001063565b6001600160a01b031662000974620009e7565b6001600160a01b0316146200099d5760405162461bcd60e51b8152600401620003549062001a77565b600080546040516001600160a01b03909116907f8be0079c531659141344cd1fd0a4f28419497f9722a3daafe3b4186f6b6457e0908390a3600080546001600160a01b0319169055565b6000546001600160a01b031690565b600062000a026200131f565b600354604051631e1e7e5960e31b81526001600160a01b039091169063f0f3f2c89062000a34908a9060040162001b1a565b60006040518083038186803b15801562000a4d57600080fd5b505afa15801562000a62573d6000803e3d6000fd5b505050506040513d6000823e601f3d908101601f1916820160405262000a8c919081019062001660565b80519091506001600160a01b0316331462000abb5760405162461bcd60e51b8152600401620003549062001ae3565b60035460405163906ab71b60e01b81526000916001600160a01b03169063906ab71b9062000af6908b908b908b908b908b9060040162001bd9565b602060405180830381600087803b15801562000b1157600080fd5b505af115801562000b26573d6000803e3d6000fd5b505050506040513d601f19601f8201168201806040525081019062000b4c9190620016f5565b604051909150339082907f219139d925a6d9d0e175f3a936f2424b3e20726a5ebc461d6945b5e74731763b90600090a3979650505050505050565b6002546001600160a01b031681565b60035460405163090bd0ad60e21b81526000916001600160a01b03169063242f42b49062000bcd9087908790879060040162001bc3565b602060405180830381600087803b15801562000be857600080fd5b505af115801562000bfd573d6000803e3d6000fd5b505050506040513d601f19601f8201168201806040525081019062000c23919062001509565b509392505050565b60035460405163711247eb60e11b81526000916001600160a01b03169063e2248fd69062000c6c908c908c908c908c908c908c908c908c9060040162001b3e565b602060405180830381600087803b15801562000c8757600080fd5b505af115801562000c9c573d6000803e3d6000fd5b505050506040513d601f19601f8201168201806040525081019062000cc2919062001509565b5098975050505050505050565b6060620007b662000cdf62000ce6565b8362001067565b60408051808201909152601581527468747470733a2f2f697066732e696f2f697066732f60581b602082015290565b60035460405163e429cef160e01b81526000916001600160a01b03169063e429cef19062000d489085906004016200191c565b602060405180830381600087803b15801562000d6357600080fd5b505af115801562000d78573d6000803e3d6000fd5b505050506040513d601f19601f8201168201806040525081019062000d9e919062001509565b50919050565b62000dae62001063565b6001600160a01b031662000dc1620009e7565b6001600160a01b03161462000dea5760405162461bcd60e51b8152600401620003549062001a77565b6001600160a01b03811662000e135760405162461bcd60e51b81526004016200035490620019fa565b600080546040516001600160a01b03808516939216917f8be0079c531659141344cd1fd0a4f28419497f9722a3daafe3b4186f6b6457e091a3600080546001600160a01b0319166001600160a01b0392909216919091179055565b600062000e7a6200131f565b600354604051631e1e7e5960e31b81526001600160a01b039091169063f0f3f2c89062000eac90899060040162001b1a565b60006040518083038186803b15801562000ec557600080fd5b505afa15801562000eda573d6000803e3d6000fd5b505050506040513d6000823e601f3d908101601f1916820160405262000f04919081019062001660565b805160208083015160408051808201909152600981526811d491515397d3919560ba1b92810192909252929350909190606062000f418762000ccf565b905060008484848460405162000f579062001349565b62000f66949392919062001930565b604051809103906000f08015801562000f83573d6000803e3d6000fd5b50905060008990507f0531f4b9e3da58b3f67a83eedb94e56632898e25574a57b3afba0385a7e658158c8c848460405162000fc2949392919062001b9f565b60405180910390a16004805460405163a9059cbb60e01b81526001600160a01b039091169163a9059cbb9162000ffd918a91869101620019c1565b602060405180830381600087803b1580156200101857600080fd5b505af11580156200102d573d6000803e3d6000fd5b505050506040513d601f19601f8201168201806040525081019062001053919062001509565b5050505050505050949350505050565b3390565b6060620010a58383604051806020016040528060008152506040518060200160405280600081525060405180602001604052806000815250620010ac565b9392505050565b805182518451865188516060948a948a948a948a948a948a94919092019092019091010167ffffffffffffffff81118015620010e757600080fd5b506040519080825280601f01601f19166020018201604052801562001113576020820181803683370190505b509050806000805b885181101562001170578881815181106200113257fe5b602001015160f81c60f81b8383806001019450815181106200115057fe5b60200101906001600160f81b031916908160001a9053506001016200111b565b5060005b8751811015620011c9578781815181106200118b57fe5b602001015160f81c60f81b838380600101945081518110620011a957fe5b60200101906001600160f81b031916908160001a90535060010162001174565b5060005b86518110156200122257868181518110620011e457fe5b602001015160f81c60f81b8383806001019450815181106200120257fe5b60200101906001600160f81b031916908160001a905350600101620011cd565b5060005b85518110156200127b578581815181106200123d57fe5b602001015160f81c60f81b8383806001019450815181106200125b57fe5b60200101906001600160f81b031916908160001a90535060010162001226565b5060005b8451811015620012d4578481815181106200129657fe5b602001015160f81c60f81b838380600101945081518110620012b457fe5b60200101906001600160f81b031916908160001a9053506001016200127f565b50909d9c50505050505050505050505050565b6040518060c0016040528060008152602001600081526020016000815260200160008152602001606081526020016000151581525090565b604051806060016040528060006001600160a01b0316815260200160608152602001600081525090565b61238b8062001ca083390190565b8051620007b68162001c86565b80518015158114620007b657600080fd5b600082601f83011262001386578081fd5b81356200139d620013978262001c2e565b62001c06565b9150808252836020828501011115620013b557600080fd5b8060208401602084013760009082016020015292915050565b600082601f830112620013df578081fd5b8151620013f0620013978262001c2e565b91508082528360208285010111156200140857600080fd5b6200141b81602084016020860162001c53565b5092915050565b60006020828403121562001434578081fd5b8135620010a58162001c86565b60006020828403121562001453578081fd5b8151620010a58162001c86565b6000602080838503121562001473578182fd5b825167ffffffffffffffff808211156200148b578384fd5b818501915085601f8301126200149f578384fd5b815181811115620014ae578485fd5b8381029150620014c084830162001c06565b8181528481019084860184860187018a1015620014db578788fd5b8795505b8386101562000cc257620014f48a8262001357565b835260019590950194918601918601620014df565b6000602082840312156200151b578081fd5b81518015158114620010a5578182fd5b6000602082840312156200153d578081fd5b813567ffffffffffffffff81111562001554578182fd5b620015628482850162001375565b949350505050565b600080604083850312156200157d578081fd5b823567ffffffffffffffff81111562001594578182fd5b620015a28582860162001375565b95602094909401359450505050565b600060208284031215620015c3578081fd5b815167ffffffffffffffff80821115620015db578283fd5b9083019060c08286031215620015ef578283fd5b620015fb60c062001c06565b825181526020830151602082015260408301516040820152606083015160608201526080830151828111156200162f578485fd5b6200163d87828601620013ce565b608083015250620016528660a0850162001364565b60a082015295945050505050565b60006020828403121562001672578081fd5b815167ffffffffffffffff808211156200168a578283fd5b90830190606082860312156200169e578283fd5b620016aa606062001c06565b8251620016b78162001c86565b8152602083015182811115620016cb578485fd5b620016d987828601620013ce565b6020830152506040830151604082015280935050505092915050565b60006020828403121562001707578081fd5b5051919050565b600080600080600060a0868803121562001726578081fd5b8535945060208601356200173a8162001c86565b935060408601356200174c8162001c86565b925060608601359150608086013567ffffffffffffffff8111156200176f578182fd5b6200177d8882890162001375565b9150509295509295909350565b600080604083850312156200179d578182fd5b82359150602083013567ffffffffffffffff811115620017bb578182fd5b620017c98582860162001375565b9150509250929050565b600080600080600080600080610100898b031215620017f0578283fd5b883597506020890135965060408901356200180b8162001c86565b955060608901356200181d8162001c86565b945060808901356200182f8162001c86565b935060a0890135925060c0890135915060e089013567ffffffffffffffff81111562001859578182fd5b620018678b828c0162001375565b9150509295985092959890939650565b6000806000606084860312156200188c578081fd5b505081359360208301359350604090920135919050565b600080600080600060a08688031215620018bb578283fd5b85359450602086013593506040860135925060608601359150608086013567ffffffffffffffff8111156200176f578182fd5b600081518084526200190881602086016020860162001c53565b601f01601f19169290920160200192915050565b6001600160a01b0391909116815260200190565b6001600160a01b03851681526080602082018190526000906200195690830186620018ee565b82810360408401526200196a8186620018ee565b90508281036060840152620019808185620018ee565b979650505050505050565b6001600160a01b0384168152606060208201819052600090620019b190830185620018ee565b9050826040830152949350505050565b6001600160a01b03929092168252602082015260400190565b901515815260200190565b600060208252620010a56020830184620018ee565b60208082526026908201527f4f776e61626c653a206e6577206f776e657220697320746865207a65726f206160408201526564647265737360d01b606082015260800190565b6020808252601c908201527f43616c6c65722073686f756c64206265207468652061756469746f7200000000604082015260600190565b6020808252818101527f4f776e61626c653a2063616c6c6572206973206e6f7420746865206f776e6572604082015260600190565b60208082526019908201527f43616c6c6572206d75737420626520616e2061756469746f7200000000000000604082015260600190565b6020808252601e908201527f43616c6c6572206d75737420626520612070726f6a656374206f776e65720000604082015260600190565b90815260200190565b600083825260406020830152620015626040830184620018ee565b888152602081018890526001600160a01b03878116604083015286811660608301528516608082015260a0810184905260c0810183905261010060e0820181905260009062001b9083820185620018ee565b9b9a5050505050505050505050565b93845260208401929092526001600160a01b03166040830152606082015260800190565b9283526020830191909152604082015260600190565b600086825285602083015284604083015283606083015260a060808301526200198060a0830184620018ee565b60405181810167ffffffffffffffff8111828210171562001c2657600080fd5b604052919050565b600067ffffffffffffffff82111562001c45578081fd5b50601f01601f191660200190565b60005b8381101562001c7057818101518382015260200162001c56565b8381111562001c80576000848401525b50505050565b6001600160a01b038116811462001c9c57600080fd5b5056fe60806040523480156200001157600080fd5b506040516200238b3803806200238b833981016040819052620000349162000589565b8282620000486301ffc9a760e01b620000c4565b81516200005d90600690602085019062000446565b5080516200007390600790602084019062000446565b50620000866380ac58cd60e01b620000c4565b62000098635b5e139f60e01b620000c4565b620000aa63780e9d6360e01b620000c4565b50620000b9905084826200011f565b50505050506200075c565b6001600160e01b03198082161415620000fa5760405162461bcd60e51b8152600401620000f19062000636565b60405180910390fd5b6001600160e01b0319166000908152602081905260409020805460ff19166001179055565b6000806200012c62000156565b600a8054600101905590506200014384826200017a565b6200014f818462000268565b5092915050565b6000620001756001600a54620002b860201b620008e71790919060201c565b905090565b6001600160a01b038216620001a35760405162461bcd60e51b8152600401620000f190620006db565b620001ae81620002e9565b15620001ce5760405162461bcd60e51b8152600401620000f1906200066d565b620001dc60008383620002b3565b6001600160a01b03821660009081526001602090815260409091206200020d9183906200090c62000306821b17901c565b506200022b818360026200031460201b62000918179092919060201c565b5060405181906001600160a01b038416906000907fddf252ad1be2c89b69c2b068fc378daa952ba7f163c4a11628f55a4df523b3ef908290a45050565b6200027382620002e9565b620002925760405162461bcd60e51b8152600401620000f19062000710565b60008281526008602090815260409091208251620002b39284019062000446565b505050565b600082820183811015620002e05760405162461bcd60e51b8152600401620000f190620006a4565b90505b92915050565b6000620002e38260026200033660201b620009381790919060201c565b6000620002e0838362000344565b60006200032c84846001600160a01b03851662000393565b90505b9392505050565b6000620002e083836200042e565b60006200035283836200042e565b6200038a57508154600181810184556000848152602080822090930184905584548482528286019093526040902091909155620002e3565b506000620002e3565b600082815260018401602052604081205480620003fa5750506040805180820182528381526020808201848152865460018181018955600089815284812095516002909302909501918255915190820155865486845281880190925292909120556200032f565b828560000160018303815481106200040e57fe5b90600052602060002090600202016001018190555060009150506200032f565b60009081526001919091016020526040902054151590565b828054600181600116156101000203166002900490600052602060002090601f016020900481019282601f106200048957805160ff1916838001178555620004b9565b82800160010185558215620004b9579182015b82811115620004b95782518255916020019190600101906200049c565b50620004c7929150620004cb565b5090565b5b80821115620004c75760008155600101620004cc565b600082601f830112620004f3578081fd5b81516001600160401b03808211156200050a578283fd5b6040516020601f8401601f19168201810183811183821017156200052c578586fd5b806040525081945083825286818588010111156200054957600080fd5b600092505b838310156200056d57858301810151828401820152918201916200054e565b838311156200057f5760008185840101525b5050505092915050565b600080600080608085870312156200059f578384fd5b84516001600160a01b0381168114620005b6578485fd5b60208601519094506001600160401b0380821115620005d3578485fd5b620005e188838901620004e2565b94506040870151915080821115620005f7578384fd5b6200060588838901620004e2565b935060608701519150808211156200061b578283fd5b506200062a87828801620004e2565b91505092959194509250565b6020808252601c908201527f4552433136353a20696e76616c696420696e7465726661636520696400000000604082015260600190565b6020808252601c908201527f4552433732313a20746f6b656e20616c7265616479206d696e74656400000000604082015260600190565b6020808252601b908201527f536166654d6174683a206164646974696f6e206f766572666c6f770000000000604082015260600190565b6020808252818101527f4552433732313a206d696e7420746f20746865207a65726f2061646472657373604082015260600190565b6020808252602c908201527f4552433732314d657461646174613a2055524920736574206f66206e6f6e657860408201526b34b9ba32b73a103a37b5b2b760a11b606082015260800190565b611c1f806200076c6000396000f3fe608060405234801561001057600080fd5b506004361061012b5760003560e01c80636352211e116100ad578063b88d4fde11610071578063b88d4fde14610255578063c87b56dd14610268578063caa0f92a1461027b578063d0def52114610283578063e985e9c5146102965761012b565b80636352211e1461020c5780636c0360eb1461021f57806370a082311461022757806395d89b411461023a578063a22cb465146102425761012b565b806318160ddd116100f457806318160ddd146101b857806323b872dd146101c05780632f745c59146101d357806342842e0e146101e65780634f6ccce7146101f95761012b565b80629a9b7b1461013057806301ffc9a71461014e57806306fdde031461016e578063081812fc14610183578063095ea7b3146101a3575b600080fd5b6101386102a9565b6040516101459190611b2b565b60405180910390f35b61016161015c366004611515565b6102af565b604051610145919061162d565b6101766102d2565b6040516101459190611638565b61019661019136600461154d565b610368565b60405161014591906115dc565b6101b66101b13660046114eb565b6103b4565b005b61013861044c565b6101b66101ce3660046113ba565b61045d565b6101386101e13660046114eb565b610495565b6101b66101f43660046113ba565b6104c0565b61013861020736600461154d565b6104db565b61019661021a36600461154d565b6104f1565b610176610519565b61013861023536600461136b565b61057a565b6101766105c3565b6101b6610250366004611462565b610624565b6101b66102633660046113fa565b6106f2565b61017661027636600461154d565b610731565b610138610877565b61016161029136600461149d565b610888565b6101616102a4366004611386565b6108b9565b600a5481565b6001600160e01b0319811660009081526020819052604090205460ff165b919050565b60068054604080516020601f600260001961010060018816150201909516949094049384018190048102820181019092528281526060939092909183018282801561035e5780601f106103335761010080835404028352916020019161035e565b820191906000526020600020905b81548152906001019060200180831161034157829003601f168201915b5050505050905090565b600061037382610944565b6103985760405162461bcd60e51b815260040161038f90611932565b60405180910390fd5b506000908152600460205260409020546001600160a01b031690565b60006103bf826104f1565b9050806001600160a01b0316836001600160a01b031614156103f35760405162461bcd60e51b815260040161038f90611a62565b806001600160a01b0316610405610951565b6001600160a01b031614806104215750610421816102a4610951565b61043d5760405162461bcd60e51b815260040161038f90611814565b6104478383610955565b505050565b600061045860026109c3565b905090565b61046e610468610951565b826109ce565b61048a5760405162461bcd60e51b815260040161038f90611aa3565b610447838383610a53565b6001600160a01b03821660009081526001602052604081206104b79083610b61565b90505b92915050565b610447838383604051806020016040528060008152506106f2565b6000806104e9600284610b6d565b509392505050565b60006104ba82604051806060016040528060298152602001611bc16029913960029190610b89565b60098054604080516020601f600260001961010060018816150201909516949094049384018190048102820181019092528281526060939092909183018282801561035e5780601f106103335761010080835404028352916020019161035e565b60006001600160a01b0382166105a25760405162461bcd60e51b815260040161038f90611871565b6001600160a01b03821660009081526001602052604090206104ba906109c3565b60078054604080516020601f600260001961010060018816150201909516949094049384018190048102820181019092528281526060939092909183018282801561035e5780601f106103335761010080835404028352916020019161035e565b61062c610951565b6001600160a01b0316826001600160a01b0316141561065d5760405162461bcd60e51b815260040161038f90611791565b806005600061066a610951565b6001600160a01b03908116825260208083019390935260409182016000908120918716808252919093529120805460ff1916921515929092179091556106ae610951565b6001600160a01b03167f17307eab39ab6107e8899845ad3d59bd9653f200f220920489ca2b5937696c31836040516106e6919061162d565b60405180910390a35050565b6107036106fd610951565b836109ce565b61071f5760405162461bcd60e51b815260040161038f90611aa3565b61072b84848484610b96565b50505050565b606061073c82610944565b6107585760405162461bcd60e51b815260040161038f90611a13565b60008281526008602090815260409182902080548351601f60026000196101006001861615020190931692909204918201849004840281018401909452808452606093928301828280156107ed5780601f106107c2576101008083540402835291602001916107ed565b820191906000526020600020905b8154815290600101906020018083116107d057829003601f168201915b5050505050905060606107fe610519565b9050805160001415610812575090506102cd565b81511561084457808260405160200161082c9291906115ad565b604051602081830303815290604052925050506102cd565b8061084e85610bc9565b60405160200161085f9291906115ad565b60405160208183030381529060405292505050919050565b600a546000906104589060016108e7565b600080610893610877565b600a8054600101905590506108a88482610ca4565b6108b28184610d68565b5092915050565b6001600160a01b03918216600090815260056020908152604080832093909416825291909152205460ff1690565b6000828201838110156104b75760405162461bcd60e51b815260040161038f90611716565b60006104b78383610dac565b600061092e84846001600160a01b038516610df6565b90505b9392505050565b60006104b78383610e8d565b60006104ba600283610938565b3390565b600081815260046020526040902080546001600160a01b0319166001600160a01b038416908117909155819061098a826104f1565b6001600160a01b03167f8c5be1e5ebec7d5bd14f71427d1e84f3dd0314c0f7b2291e5b200ac8c7c3b92560405160405180910390a45050565b60006104ba82610ea5565b60006109d982610944565b6109f55760405162461bcd60e51b815260040161038f906117c8565b6000610a00836104f1565b9050806001600160a01b0316846001600160a01b03161480610a3b5750836001600160a01b0316610a3084610368565b6001600160a01b0316145b80610a4b5750610a4b81856108b9565b949350505050565b826001600160a01b0316610a66826104f1565b6001600160a01b031614610a8c5760405162461bcd60e51b815260040161038f906119ca565b6001600160a01b038216610ab25760405162461bcd60e51b815260040161038f9061174d565b610abd838383610447565b610ac8600082610955565b6001600160a01b0383166000908152600160205260409020610aea9082610ea9565b506001600160a01b0382166000908152600160205260409020610b0d908261090c565b50610b1a60028284610918565b5080826001600160a01b0316846001600160a01b03167fddf252ad1be2c89b69c2b068fc378daa952ba7f163c4a11628f55a4df523b3ef60405160405180910390a4505050565b60006104b78383610eb5565b6000808080610b7c8686610efa565b9097909650945050505050565b600061092e848484610f56565b610ba1848484610a53565b610bad84848484610fb5565b61072b5760405162461bcd60e51b815260040161038f9061168d565b606081610bee57506040805180820190915260018152600360fc1b60208201526102cd565b8160005b8115610c0657600101600a82049150610bf2565b60608167ffffffffffffffff81118015610c1f57600080fd5b506040519080825280601f01601f191660200182016040528015610c4a576020820181803683370190505b50859350905060001982015b8315610c9b57600a840660300160f81b82828060019003935081518110610c7957fe5b60200101906001600160f81b031916908160001a905350600a84049350610c56565b50949350505050565b6001600160a01b038216610cca5760405162461bcd60e51b815260040161038f906118fd565b610cd381610944565b15610cf05760405162461bcd60e51b815260040161038f906116df565b610cfc60008383610447565b6001600160a01b0382166000908152600160205260409020610d1e908261090c565b50610d2b60028284610918565b5060405181906001600160a01b038416906000907fddf252ad1be2c89b69c2b068fc378daa952ba7f163c4a11628f55a4df523b3ef908290a45050565b610d7182610944565b610d8d5760405162461bcd60e51b815260040161038f9061197e565b6000828152600860209081526040909120825161044792840190611243565b6000610db88383610e8d565b610dee575081546001818101845560008481526020808220909301849055845484825282860190935260409020919091556104ba565b5060006104ba565b600082815260018401602052604081205480610e5b575050604080518082018252838152602080820184815286546001818101895560008981528481209551600290930290950191825591519082015586548684528188019092529290912055610931565b82856000016001830381548110610e6e57fe5b9060005260206000209060020201600101819055506000915050610931565b60009081526001919091016020526040902054151590565b5490565b60006104b78383611094565b81546000908210610ed85760405162461bcd60e51b815260040161038f9061164b565b826000018281548110610ee757fe5b9060005260206000200154905092915050565b815460009081908310610f1f5760405162461bcd60e51b815260040161038f906118bb565b6000846000018481548110610f3057fe5b906000526020600020906002020190508060000154816001015492509250509250929050565b60008281526001840160205260408120548281610f865760405162461bcd60e51b815260040161038f9190611638565b50846000016001820381548110610f9957fe5b9060005260206000209060020201600101549150509392505050565b6000610fc9846001600160a01b031661115a565b610fd557506001610a4b565b606061105d630a85bd0160e11b610fea610951565b88878760405160240161100094939291906115f0565b604051602081830303815290604052906001600160e01b0319166020820180516001600160e01b038381831617835250505050604051806060016040528060328152602001611b8f603291396001600160a01b0388169190611160565b90506000818060200190518101906110759190611531565b6001600160e01b031916630a85bd0160e11b1492505050949350505050565b6000818152600183016020526040812054801561115057835460001980830191908101906000908790839081106110c757fe5b90600052602060002001549050808760000184815481106110e457fe5b60009182526020808320909101929092558281526001898101909252604090209084019055865487908061111457fe5b600190038181906000526020600020016000905590558660010160008781526020019081526020016000206000905560019450505050506104ba565b60009150506104ba565b3b151590565b606061092e8484600085856111748561115a565b6111905760405162461bcd60e51b815260040161038f90611af4565b60006060866001600160a01b031685876040516111ad9190611591565b60006040518083038185875af1925050503d80600081146111ea576040519150601f19603f3d011682016040523d82523d6000602084013e6111ef565b606091505b50915091506111ff82828661120a565b979650505050505050565b60608315611219575081610931565b8251156112295782518084602001fd5b8160405162461bcd60e51b815260040161038f9190611638565b828054600181600116156101000203166002900490600052602060002090601f016020900481019282601f1061128457805160ff19168380011785556112b1565b828001600101855582156112b1579182015b828111156112b1578251825591602001919060010190611296565b506112bd9291506112c1565b5090565b5b808211156112bd57600081556001016112c2565b80356001600160a01b03811681146104ba57600080fd5b600082601f8301126112fd578081fd5b813567ffffffffffffffff80821115611314578283fd5b604051601f8301601f191681016020018281118282101715611334578485fd5b60405282815292508284830160200186101561134f57600080fd5b8260208601602083013760006020848301015250505092915050565b60006020828403121561137c578081fd5b6104b783836112d6565b60008060408385031215611398578081fd5b6113a284846112d6565b91506113b184602085016112d6565b90509250929050565b6000806000606084860312156113ce578081fd5b83356113d981611b60565b925060208401356113e981611b60565b929592945050506040919091013590565b6000806000806080858703121561140f578081fd5b61141986866112d6565b935061142886602087016112d6565b925060408501359150606085013567ffffffffffffffff81111561144a578182fd5b611456878288016112ed565b91505092959194509250565b60008060408385031215611474578182fd5b61147e84846112d6565b915060208301358015158114611492578182fd5b809150509250929050565b600080604083850312156114af578182fd5b82356114ba81611b60565b9150602083013567ffffffffffffffff8111156114d5578182fd5b6114e1858286016112ed565b9150509250929050565b600080604083850312156114fd578182fd5b61150784846112d6565b946020939093013593505050565b600060208284031215611526578081fd5b81356104b781611b78565b600060208284031215611542578081fd5b81516104b781611b78565b60006020828403121561155e578081fd5b5035919050565b6000815180845261157d816020860160208601611b34565b601f01601f19169290920160200192915050565b600082516115a3818460208701611b34565b9190910192915050565b600083516115bf818460208801611b34565b8351908301906115d3818360208801611b34565b01949350505050565b6001600160a01b0391909116815260200190565b6001600160a01b038581168252841660208201526040810183905260806060820181905260009061162390830184611565565b9695505050505050565b901515815260200190565b6000602082526104b76020830184611565565b60208082526022908201527f456e756d657261626c655365743a20696e646578206f7574206f6620626f756e604082015261647360f01b606082015260800190565b60208082526032908201527f4552433732313a207472616e7366657220746f206e6f6e20455243373231526560408201527131b2b4bb32b91034b6b83632b6b2b73a32b960711b606082015260800190565b6020808252601c908201527f4552433732313a20746f6b656e20616c7265616479206d696e74656400000000604082015260600190565b6020808252601b908201527f536166654d6174683a206164646974696f6e206f766572666c6f770000000000604082015260600190565b60208082526024908201527f4552433732313a207472616e7366657220746f20746865207a65726f206164646040820152637265737360e01b606082015260800190565b60208082526019908201527f4552433732313a20617070726f766520746f2063616c6c657200000000000000604082015260600190565b6020808252602c908201527f4552433732313a206f70657261746f7220717565727920666f72206e6f6e657860408201526b34b9ba32b73a103a37b5b2b760a11b606082015260800190565b60208082526038908201527f4552433732313a20617070726f76652063616c6c6572206973206e6f74206f7760408201527f6e6572206e6f7220617070726f76656420666f7220616c6c0000000000000000606082015260800190565b6020808252602a908201527f4552433732313a2062616c616e636520717565727920666f7220746865207a65604082015269726f206164647265737360b01b606082015260800190565b60208082526022908201527f456e756d657261626c654d61703a20696e646578206f7574206f6620626f756e604082015261647360f01b606082015260800190565b6020808252818101527f4552433732313a206d696e7420746f20746865207a65726f2061646472657373604082015260600190565b6020808252602c908201527f4552433732313a20617070726f76656420717565727920666f72206e6f6e657860408201526b34b9ba32b73a103a37b5b2b760a11b606082015260800190565b6020808252602c908201527f4552433732314d657461646174613a2055524920736574206f66206e6f6e657860408201526b34b9ba32b73a103a37b5b2b760a11b606082015260800190565b60208082526029908201527f4552433732313a207472616e73666572206f6620746f6b656e2074686174206960408201526839903737ba1037bbb760b91b606082015260800190565b6020808252602f908201527f4552433732314d657461646174613a2055524920717565727920666f72206e6f60408201526e3732bc34b9ba32b73a103a37b5b2b760891b606082015260800190565b60208082526021908201527f4552433732313a20617070726f76616c20746f2063757272656e74206f776e656040820152603960f91b606082015260800190565b60208082526031908201527f4552433732313a207472616e736665722063616c6c6572206973206e6f74206f6040820152701ddb995c881b9bdc88185c1c1c9bdd9959607a1b606082015260800190565b6020808252601d908201527f416464726573733a2063616c6c20746f206e6f6e2d636f6e7472616374000000604082015260600190565b90815260200190565b60005b83811015611b4f578181015183820152602001611b37565b8381111561072b5750506000910152565b6001600160a01b0381168114611b7557600080fd5b50565b6001600160e01b031981168114611b7557600080fdfe4552433732313a207472616e7366657220746f206e6f6e20455243373231526563656976657220696d706c656d656e7465724552433732313a206f776e657220717565727920666f72206e6f6e6578697374656e7420746f6b656ea26469706673582212204be283a474c70db036c16e35fbc0378c3b182b645b347c451209e57efbe5d13964736f6c634300060c0033a2646970667358221220c3b0a8e2afef706b311e0e184e4e7ee53e3c827a3604b58fc5b514d04314be7c64736f6c634300060c0033",
  "immutableReferences": {},
  "source": "// SPDX-License-Identifier: MIT\n\npragma solidity 0.6.12;\npragma experimental ABIEncoderV2;\n\nimport {Ownable} from \"@openzeppelin/contracts/access/Ownable.sol\";\nimport {SafeMath} from \"@openzeppelin/contracts/math/SafeMath.sol\";\nimport {Strings} from \"./libraries/Strings.sol\";\n\nimport {GreenNFTFactoryCommons} from \"./commons/GreenNFTFactoryCommons.sol\";\nimport {GreenNFT} from \"./GreenNFT.sol\";\nimport {GreenNFTMarketPlace} from \"./GreenNFTMarketPlace.sol\";\nimport {GreenNFTData} from \"./GreenNFTData.sol\";\nimport {CarbonCreditToken} from \"./CarbonCreditToken.sol\";\n\n/**\n * @notice - This is the factory contract for a NFT of green\n */\ncontract GreenNFTFactory is Ownable, GreenNFTFactoryCommons {\n    using SafeMath for uint256;\n    using Strings for string;\n\n    address GREEN_NFT_MARKETPLACE;\n\n    GreenNFTMarketPlace public greenNFTMarketplace;\n    GreenNFTData public greenNFTData;\n    CarbonCreditToken public carbonCreditToken;\n\n    // Events declaration\n    event ProjectRegistered(\n        uint indexed projectId,\n        address indexed projectOwner\n    );\n    event ClaimRegistered(uint indexed claimId, address indexed claimant);\n    event ClaimAudited(\n        uint indexed projectId,\n        uint indexed claimId,\n        uint co2Reductions,\n        string referenceDocument\n    );\n    event GreenNFTCreated(\n        uint projectId,\n        uint claimId,\n        GreenNFT greenNFT,\n        uint carbonCredits\n    );\n\n    constructor(\n        GreenNFTMarketPlace _greenNFTMarketplace,\n        GreenNFTData _greenNFTData,\n        CarbonCreditToken _carbonCreditToken\n    ) public {\n        greenNFTMarketplace = _greenNFTMarketplace;\n        greenNFTData = _greenNFTData;\n        carbonCreditToken = _carbonCreditToken;\n\n        GREEN_NFT_MARKETPLACE = address(greenNFTMarketplace);\n    }\n\n    /**\n     * @notice - Throws if called by account without auditors\n     */\n    modifier onlyAuditor() {\n        address auditor;\n        address[] memory auditors = greenNFTData.getAuditors();\n        for (uint i = 0; i < auditors.length; i++) {\n            auditor = auditors[i];\n        }\n\n        require(msg.sender == auditor, \"Caller should be the auditor\");\n        _;\n    }\n\n    /**\n     * @notice - Register a auditor\n     */\n    function registerAuditor(address auditor) public returns (bool) {\n        //function registerAuditor(address auditor) public onlyOwner returns (bool) {\n        /// [Note]: Caller should be onlyOwner. But it is commentouted temporary.\n        greenNFTData.addAuditor(auditor);\n    }\n\n    /**\n     * @notice - Register a project and log the projectId\n     */\n    function registerProject(\n        string memory projectName,\n        uint co2Emissions\n    ) public returns (uint) {\n        address projectOwner = msg.sender;\n        uint projectId = greenNFTData.saveProject(\n            projectOwner,\n            projectName,\n            co2Emissions\n        );\n        emit ProjectRegistered(projectId, projectOwner); // Optional: Emit an event if you want to log this on the blockchain\n        return projectId; // Return the project ID for use in the DApp\n    }\n    // /**\n    //  * @notice - A project owner claim CO2 reductions\n    //  */\n    // function claimCO2Reductions(\n    //     uint projectId,\n    //     uint co2Reductions,\n    //     uint startOfPeriod,\n    //     uint endOfPeriod,\n    //     string memory referenceDocument\n    // ) public returns (bool) {\n    //     /// Check whether a caller is a project owner or not\n    //     GreenNFTData.Project memory project = greenNFTData.getProject(\n    //         projectId\n    //     );\n    //     address _projectOwner = project.projectOwner;\n    //     require(msg.sender == _projectOwner, \"Caller must be a project owner\");\n\n    //     greenNFTData.saveClaim(\n    //         projectId,\n    //         co2Reductions,\n    //         startOfPeriod,\n    //         endOfPeriod,\n    //         referenceDocument\n    //     );\n    // }\n\n    /**\n     * @notice - A project owner claims CO2 reductions and get a claim ID\n     */\n    function claimCO2Reductions(\n        uint projectId,\n        uint co2Reductions,\n        uint startOfPeriod,\n        uint endOfPeriod,\n        string memory referenceDocument\n    ) public returns (uint) {\n        // Check whether a caller is a project owner or not\n        GreenNFTData.Project memory project = greenNFTData.getProject(\n            projectId\n        );\n        require(\n            msg.sender == project.projectOwner,\n            \"Caller must be a project owner\"\n        );\n\n        uint claimId = greenNFTData.saveClaim(\n            projectId,\n            co2Reductions,\n            startOfPeriod,\n            endOfPeriod,\n            referenceDocument\n        );\n        emit ClaimRegistered(claimId, msg.sender); // Emit the event with claim ID and claimant\n        return claimId; // Return the claim ID for use in the DApp\n    }\n    /**\n     * @notice - An auditor audit a CO2 reduction claim\n     * @notice - Only auditor can audit\n     * @notice - mark it as audited\n     */\n\n    function auditClaim(\n        uint claimId,\n        string memory auditedReport\n    ) public onlyAuditor returns (bool) {\n        address auditor;\n        address[] memory auditors = greenNFTData.getAuditors();\n        for (uint i = 0; i < auditors.length; i++) {\n            if (msg.sender == greenNFTData.getAuditor(i)) {\n                auditor = greenNFTData.getAuditor(i);\n            }\n        }\n        require(msg.sender == auditor, \"Caller must be an auditor\");\n\n        GreenNFTData.Claim memory claim = greenNFTData.getClaim(claimId);\n        uint _projectId = claim.projectId;\n        uint _co2Reductions = claim.co2Reductions;\n        string memory _referenceDocument = claim.referenceDocument;\n\n        greenNFTData.markClaimAsAudited(claimId);\n        emit ClaimAudited(\n            _projectId,\n            claimId,\n            _co2Reductions,\n            _referenceDocument\n        );\n\n        // Create a new GreenNFT\n        _createNewGreenNFT(_projectId, claimId, _co2Reductions, auditedReport);\n    }\n\n    /**\n     * @notice - Create a new GreenNFT\n     */\n    function _createNewGreenNFT(\n        uint projectId,\n        uint claimId,\n        uint co2Reductions,\n        string memory auditedReport\n    ) internal returns (bool) {\n        GreenNFTData.Project memory project = greenNFTData.getProject(\n            projectId\n        );\n        address _projectOwner = project.projectOwner;\n        string memory _projectName = project.projectName;\n        string memory projectSymbol = \"GREEN_NFT\"; // [Note]: All NFT's symbol are common symbol\n        string memory tokenURI = getTokenURI(auditedReport); // [Note]: IPFS hash + URL\n\n        GreenNFT greenNFT = new GreenNFT(\n            _projectOwner,\n            _projectName,\n            projectSymbol,\n            tokenURI\n        );\n\n        // Calculate carbon credits\n        uint carbonCredits = co2Reductions;\n\n        emit GreenNFTCreated(projectId, claimId, greenNFT, carbonCredits);\n\n        // The CarbonCreditTokens that is equal amount to given-carbonCredits are transferred into the wallet of project owner\n        // [Note]: This contract should has some the CarbonCreditTokens balance.\n        carbonCreditToken.transfer(_projectOwner, carbonCredits);\n    }\n\n    /**\n     * @notice - Save a GreenNFT data\n     */\n    function saveGreenNFTData(\n        uint claimId,\n        GreenNFT greenNFT,\n        address auditor,\n        uint carbonCredits,\n        string memory auditedReport\n    ) public returns (bool) {\n        GreenNFTData.Claim memory claim = greenNFTData.getClaim(claimId);\n        uint _projectId = claim.projectId;\n        uint _startOfPeriod = claim.startOfPeriod;\n        uint _endOfPeriod = claim.endOfPeriod;\n        uint _co2Reductions = claim.co2Reductions;\n\n        GreenNFTData.Project memory project = greenNFTData.getProject(\n            _projectId\n        );\n\n        // [Note]: Use a project instance as it is. (Do not assign another variable in order to avoid \"stack too deep\")\n        _saveGreenNFTMetadata(\n            _projectId,\n            claimId,\n            greenNFT,\n            project.projectOwner,\n            auditor,\n            _startOfPeriod,\n            _endOfPeriod,\n            auditedReport\n        );\n        _saveGreenNFTEmissonData(\n            project.co2Emissions,\n            _co2Reductions,\n            carbonCredits\n        );\n    }\n\n    function _saveGreenNFTMetadata(\n        uint projectId,\n        uint claimId,\n        GreenNFT greenNFT,\n        address _projectOwner,\n        address auditor,\n        uint startOfPeriod,\n        uint endOfPeriod,\n        string memory auditedReport\n    ) public returns (bool) {\n        // Save metadata of a GreenNFT created\n        greenNFTData.saveGreenNFTMetadata(\n            projectId,\n            claimId,\n            greenNFT,\n            _projectOwner,\n            auditor,\n            startOfPeriod,\n            endOfPeriod,\n            auditedReport\n        );\n    }\n\n    function _saveGreenNFTEmissonData(\n        // uint startOfPeriod,\n        // uint endOfPeriod,\n        uint co2Emissions,\n        uint co2Reductions,\n        uint carbonCredits\n    ) public returns (bool) {\n        /// Save emission data of a GreenNFT created\n        greenNFTData.saveGreenNFTEmissonData(\n            co2Emissions,\n            co2Reductions,\n            carbonCredits\n        );\n    }\n\n    //-----------------\n    // Getter methods\n    //-----------------\n    function baseTokenURI() public pure returns (string memory) {\n        return \"https://ipfs.io/ipfs/\";\n    }\n\n    function getTokenURI(\n        string memory _auditedReport\n    ) public pure returns (string memory) {\n        return Strings.strConcat(baseTokenURI(), _auditedReport); // IPFS hash of audited-report + base token URI\n    }\n}\n",
  "sourcePath": "/home/saicharith/dev/carbon-credits-marketplace/smart-contract/contracts/GreenNFTFactory.sol",
  "compiler": {
    "name": "solc",
    "version": "0.6.12+commit.27d51765.Emscripten.clang"
  },
  "schemaVersion": "3.4.16",
  "updatedAt": "2024-05-07T19:58:25.969Z",
  "networkType": "ethereum",
  "devdoc": {
    "kind": "dev",
    "methods": {
      "owner()": {
        "details": "Returns the address of the current owner."
      },
      "renounceOwnership()": {
        "details": "Leaves the contract without owner. It will not be possible to call `onlyOwner` functions anymore. Can only be called by the current owner. NOTE: Renouncing ownership will leave the contract without an owner, thereby removing any functionality that is only available to the owner."
      },
      "transferOwnership(address)": {
        "details": "Transfers ownership of the contract to a new account (`newOwner`). Can only be called by the current owner."
      }
    },
    "version": 1
  },
  "userdoc": {
    "kind": "user",
    "methods": {
      "auditClaim(uint256,string)": {
        "notice": "- An auditor audit a CO2 reduction claim- Only auditor can audit- mark it as audited"
      },
      "claimCO2Reductions(uint256,uint256,uint256,uint256,string)": {
        "notice": "- A project owner claims CO2 reductions and get a claim ID"
      },
      "registerAuditor(address)": {
        "notice": "- Register a auditor"
      },
      "registerProject(string,uint256)": {
        "notice": "- Register a project and log the projectId"
      },
      "saveGreenNFTData(uint256,address,address,uint256,string)": {
        "notice": "- Save a GreenNFT data"
      }
    },
    "notice": "- This is the factory contract for a NFT of green",
    "version": 1
  }
}