{
  "contractName": "GreenNFTTradable",
  "abi": [
    {
      "inputs": [
        {
          "internalType": "contract CarbonCreditToken",
          "name": "_carbonCreditToken",
          "type": "address"
        }
      ],
      "stateMutability": "nonpayable",
      "type": "constructor"
    },
    {
      "inputs": [
        {
          "internalType": "contract GreenNFTData",
          "name": "_greenNFTData",
          "type": "address"
        },
        {
          "internalType": "contract GreenNFT",
          "name": "greenNFT",
          "type": "address"
        }
      ],
      "name": "openToPutOnSale",
      "outputs": [],
      "stateMutability": "nonpayable",
      "type": "function"
    },
    {
      "inputs": [
        {
          "internalType": "contract GreenNFTData",
          "name": "_greenNFTData",
          "type": "address"
        },
        {
          "internalType": "contract GreenNFT",
          "name": "greenNFT",
          "type": "address"
        }
      ],
      "name": "cancelToPutOnSale",
      "outputs": [],
      "stateMutability": "nonpayable",
      "type": "function"
    }
  ],
  "bytecode": "0x608060405234801561001057600080fd5b5060405161058538038061058583398101604081905261002f91610054565b600080546001600160a01b0319166001600160a01b0392909216919091179055610082565b600060208284031215610065578081fd5b81516001600160a01b038116811461007b578182fd5b9392505050565b6104f4806100916000396000f3fe608060405234801561001057600080fd5b50600436106100365760003560e01c80630525530a1461003b5780638b21266114610050575b600080fd5b61004e610049366004610395565b610063565b005b61004e61005e366004610395565b610201565b604051630898b77f60e31b815282906001600160a01b038216906344c5bbf89061009490859060029060040161047f565b602060405180830381600087803b1580156100ae57600080fd5b505af11580156100c2573d6000803e3d6000fd5b505050506040513d601f19601f820116820180604052508101906100e6919061036e565b506100ef610346565b604051633fbd34c960e01b81526001600160a01b03831690633fbd34c99061011b90869060040161046b565b60806040518083038186803b15801561013357600080fd5b505afa158015610147573d6000803e3d6000fd5b505050506040513d601f19601f8201168201806040525081019061016b91906103cd565b604080820151600054915163a9059cbb60e01b81529293509133916001600160a01b03169063a9059cbb906101a69084908690600401610452565b602060405180830381600087803b1580156101c057600080fd5b505af11580156101d4573d6000803e3d6000fd5b505050506040513d601f19601f820116820180604052508101906101f8919061036e565b50505050505050565b604051630898b77f60e31b815282906001600160a01b038216906344c5bbf89061023290859060019060040161047f565b602060405180830381600087803b15801561024c57600080fd5b505af1158015610260573d6000803e3d6000fd5b505050506040513d601f19601f82011682018060405250810190610284919061036e565b5061028d610346565b604051633fbd34c960e01b81526001600160a01b03831690633fbd34c9906102b990869060040161046b565b60806040518083038186803b1580156102d157600080fd5b505afa1580156102e5573d6000803e3d6000fd5b505050506040513d601f19601f8201168201806040525081019061030991906103cd565b60408082015160005491516323b872dd60e01b81529293509133916001600160a01b0316906323b872dd906101a69084903090879060040161042e565b6040518060800160405280600081526020016000815260200160008152602001600081525090565b60006020828403121561037f578081fd5b8151801515811461038e578182fd5b9392505050565b600080604083850312156103a7578081fd5b82356103b2816104a6565b915060208301356103c2816104a6565b809150509250929050565b6000608082840312156103de578081fd5b6040516080810181811067ffffffffffffffff821117156103fd578283fd5b8060405250825181526020830151602082015260408301516040820152606083015160608201528091505092915050565b6001600160a01b039384168152919092166020820152604081019190915260600190565b6001600160a01b03929092168252602082015260400190565b6001600160a01b0391909116815260200190565b6001600160a01b0383168152604081016003831061049957fe5b8260208301529392505050565b6001600160a01b03811681146104bb57600080fd5b5056fea264697066735822122073dec21632c510ec43c1d6186f8a70bb372edeb2c8db962b068fc45026c0d45664736f6c634300060c0033",
  "immutableReferences": {},
  "source": "// SPDX-License-Identifier: MIT\npragma solidity 0.6.12;\npragma experimental ABIEncoderV2;\n\nimport { GreenNFT } from \"./GreenNFT.sol\";\nimport { GreenNFTData } from \"./GreenNFTData.sol\";\nimport { CarbonCreditToken } from \"./CarbonCreditToken.sol\";\n\n// [Note]: For calling enum\nimport { GreenNFTDataCommons } from \"./commons/GreenNFTDataCommons.sol\";\n\n\n/**\n * @title - GreenNFTTradable contract\n * @notice - This contract has role that switch open/cancel to put on sale of carbon credits\n */\ncontract GreenNFTTradable {\n    CarbonCreditToken private carbonCreditToken;  // [Note]: The reason why I use \"private\" is to avoid an error of \"Overriding public state variable\"\n\n    constructor(CarbonCreditToken _carbonCreditToken) public {\n        carbonCreditToken = _carbonCreditToken;        \n    }\n\n    /**\n     * @notice - Open to put on sale of carbon credits.\n     * @notice - Caller is a projectOwner (Seller)\n     */\n    function openToPutOnSale(GreenNFTData _greenNFTData, GreenNFT greenNFT) public {\n        GreenNFTData greenNFTData = _greenNFTData;\n        \n        // Update status\n        greenNFTData.updateStatus(greenNFT, GreenNFTDataCommons.GreenNFTStatus.Sale);\n\n        // Get amount of carbon credits\n        GreenNFTDataCommons.GreenNFTEmissonData memory greenNFTEmissonData = greenNFTData.getGreenNFTEmissonDataByNFTAddress(greenNFT);\n        uint _carbonCredits = greenNFTEmissonData.carbonCredits;\n\n        // CarbonCreditTokens are locked on this smart contract\n        address projectOwner = msg.sender;\n        carbonCreditToken.transferFrom(projectOwner, address(this), _carbonCredits);\n    }\n\n    /**\n     * @notice - Cancel to put on sale of carbon credits.\n     * @notice - Caller is a seller\n     */\n    function cancelToPutOnSale(GreenNFTData _greenNFTData, GreenNFT greenNFT) public {\n        GreenNFTData greenNFTData = _greenNFTData;\n\n        // Update status\n        greenNFTData.updateStatus(greenNFT, GreenNFTDataCommons.GreenNFTStatus.NotSale);\n\n        // Get amount of carbon credits\n        GreenNFTDataCommons.GreenNFTEmissonData memory greenNFTEmissonData = greenNFTData.getGreenNFTEmissonDataByNFTAddress(greenNFT);\n        uint _carbonCredits = greenNFTEmissonData.carbonCredits;\n\n        // CarbonCreditTokens locked are relesed from this smart contract and transferred into a projectOwner (seller) \n        address projectOwner = msg.sender;\n        carbonCreditToken.transfer(projectOwner, _carbonCredits);\n    }\n\n}\n",
  "sourcePath": "/home/saicharith/dev/carbon-credits-marketplace/smart-contract/contracts/GreenNFTTradable.sol",
  "compiler": {
    "name": "solc",
    "version": "0.6.12+commit.27d51765.Emscripten.clang"
  },
  "schemaVersion": "3.4.16",
  "updatedAt": "2024-05-06T06:43:03.776Z",
  "devdoc": {
    "kind": "dev",
    "methods": {},
    "title": "- GreenNFTTradable contract",
    "version": 1
  },
  "userdoc": {
    "kind": "user",
    "methods": {
      "cancelToPutOnSale(address,address)": {
        "notice": "- Cancel to put on sale of carbon credits.- Caller is a seller"
      },
      "openToPutOnSale(address,address)": {
        "notice": "- Open to put on sale of carbon credits.- Caller is a projectOwner (Seller)"
      }
    },
    "notice": "- This contract has role that switch open/cancel to put on sale of carbon credits",
    "version": 1
  }
}