{
  "contractName": "GreenNFT",
  "abi": [
    {
      "inputs": [
        {
          "internalType": "address",
          "name": "_projectOwner",
          "type": "address"
        },
        {
          "internalType": "string",
          "name": "_projectName",
          "type": "string"
        },
        {
          "internalType": "string",
          "name": "_projectSymbol",
          "type": "string"
        },
        {
          "internalType": "string",
          "name": "_tokenURI",
          "type": "string"
        }
      ],
      "stateMutability": "nonpayable",
      "type": "constructor"
    },
    {
      "anonymous": false,
      "inputs": [
        {
          "indexed": true,
          "internalType": "address",
          "name": "owner",
          "type": "address"
        },
        {
          "indexed": true,
          "internalType": "address",
          "name": "approved",
          "type": "address"
        },
        {
          "indexed": true,
          "internalType": "uint256",
          "name": "tokenId",
          "type": "uint256"
        }
      ],
      "name": "Approval",
      "type": "event"
    },
    {
      "anonymous": false,
      "inputs": [
        {
          "indexed": true,
          "internalType": "address",
          "name": "owner",
          "type": "address"
        },
        {
          "indexed": true,
          "internalType": "address",
          "name": "operator",
          "type": "address"
        },
        {
          "indexed": false,
          "internalType": "bool",
          "name": "approved",
          "type": "bool"
        }
      ],
      "name": "ApprovalForAll",
      "type": "event"
    },
    {
      "anonymous": false,
      "inputs": [
        {
          "indexed": true,
          "internalType": "address",
          "name": "from",
          "type": "address"
        },
        {
          "indexed": true,
          "internalType": "address",
          "name": "to",
          "type": "address"
        },
        {
          "indexed": true,
          "internalType": "uint256",
          "name": "tokenId",
          "type": "uint256"
        }
      ],
      "name": "Transfer",
      "type": "event"
    },
    {
      "inputs": [
        {
          "internalType": "address",
          "name": "to",
          "type": "address"
        },
        {
          "internalType": "uint256",
          "name": "tokenId",
          "type": "uint256"
        }
      ],
      "name": "approve",
      "outputs": [],
      "stateMutability": "nonpayable",
      "type": "function"
    },
    {
      "inputs": [
        {
          "internalType": "address",
          "name": "owner",
          "type": "address"
        }
      ],
      "name": "balanceOf",
      "outputs": [
        {
          "internalType": "uint256",
          "name": "",
          "type": "uint256"
        }
      ],
      "stateMutability": "view",
      "type": "function"
    },
    {
      "inputs": [],
      "name": "baseURI",
      "outputs": [
        {
          "internalType": "string",
          "name": "",
          "type": "string"
        }
      ],
      "stateMutability": "view",
      "type": "function"
    },
    {
      "inputs": [],
      "name": "currentTokenId",
      "outputs": [
        {
          "internalType": "uint256",
          "name": "",
          "type": "uint256"
        }
      ],
      "stateMutability": "view",
      "type": "function"
    },
    {
      "inputs": [
        {
          "internalType": "uint256",
          "name": "tokenId",
          "type": "uint256"
        }
      ],
      "name": "getApproved",
      "outputs": [
        {
          "internalType": "address",
          "name": "",
          "type": "address"
        }
      ],
      "stateMutability": "view",
      "type": "function"
    },
    {
      "inputs": [
        {
          "internalType": "address",
          "name": "owner",
          "type": "address"
        },
        {
          "internalType": "address",
          "name": "operator",
          "type": "address"
        }
      ],
      "name": "isApprovedForAll",
      "outputs": [
        {
          "internalType": "bool",
          "name": "",
          "type": "bool"
        }
      ],
      "stateMutability": "view",
      "type": "function"
    },
    {
      "inputs": [],
      "name": "name",
      "outputs": [
        {
          "internalType": "string",
          "name": "",
          "type": "string"
        }
      ],
      "stateMutability": "view",
      "type": "function"
    },
    {
      "inputs": [
        {
          "internalType": "uint256",
          "name": "tokenId",
          "type": "uint256"
        }
      ],
      "name": "ownerOf",
      "outputs": [
        {
          "internalType": "address",
          "name": "",
          "type": "address"
        }
      ],
      "stateMutability": "view",
      "type": "function"
    },
    {
      "inputs": [
        {
          "internalType": "address",
          "name": "from",
          "type": "address"
        },
        {
          "internalType": "address",
          "name": "to",
          "type": "address"
        },
        {
          "internalType": "uint256",
          "name": "tokenId",
          "type": "uint256"
        }
      ],
      "name": "safeTransferFrom",
      "outputs": [],
      "stateMutability": "nonpayable",
      "type": "function"
    },
    {
      "inputs": [
        {
          "internalType": "address",
          "name": "from",
          "type": "address"
        },
        {
          "internalType": "address",
          "name": "to",
          "type": "address"
        },
        {
          "internalType": "uint256",
          "name": "tokenId",
          "type": "uint256"
        },
        {
          "internalType": "bytes",
          "name": "_data",
          "type": "bytes"
        }
      ],
      "name": "safeTransferFrom",
      "outputs": [],
      "stateMutability": "nonpayable",
      "type": "function"
    },
    {
      "inputs": [
        {
          "internalType": "address",
          "name": "operator",
          "type": "address"
        },
        {
          "internalType": "bool",
          "name": "approved",
          "type": "bool"
        }
      ],
      "name": "setApprovalForAll",
      "outputs": [],
      "stateMutability": "nonpayable",
      "type": "function"
    },
    {
      "inputs": [
        {
          "internalType": "bytes4",
          "name": "interfaceId",
          "type": "bytes4"
        }
      ],
      "name": "supportsInterface",
      "outputs": [
        {
          "internalType": "bool",
          "name": "",
          "type": "bool"
        }
      ],
      "stateMutability": "view",
      "type": "function"
    },
    {
      "inputs": [],
      "name": "symbol",
      "outputs": [
        {
          "internalType": "string",
          "name": "",
          "type": "string"
        }
      ],
      "stateMutability": "view",
      "type": "function"
    },
    {
      "inputs": [
        {
          "internalType": "uint256",
          "name": "index",
          "type": "uint256"
        }
      ],
      "name": "tokenByIndex",
      "outputs": [
        {
          "internalType": "uint256",
          "name": "",
          "type": "uint256"
        }
      ],
      "stateMutability": "view",
      "type": "function"
    },
    {
      "inputs": [
        {
          "internalType": "address",
          "name": "owner",
          "type": "address"
        },
        {
          "internalType": "uint256",
          "name": "index",
          "type": "uint256"
        }
      ],
      "name": "tokenOfOwnerByIndex",
      "outputs": [
        {
          "internalType": "uint256",
          "name": "",
          "type": "uint256"
        }
      ],
      "stateMutability": "view",
      "type": "function"
    },
    {
      "inputs": [
        {
          "internalType": "uint256",
          "name": "tokenId",
          "type": "uint256"
        }
      ],
      "name": "tokenURI",
      "outputs": [
        {
          "internalType": "string",
          "name": "",
          "type": "string"
        }
      ],
      "stateMutability": "view",
      "type": "function"
    },
    {
      "inputs": [],
      "name": "totalSupply",
      "outputs": [
        {
          "internalType": "uint256",
          "name": "",
          "type": "uint256"
        }
      ],
      "stateMutability": "view",
      "type": "function"
    },
    {
      "inputs": [
        {
          "internalType": "address",
          "name": "from",
          "type": "address"
        },
        {
          "internalType": "address",
          "name": "to",
          "type": "address"
        },
        {
          "internalType": "uint256",
          "name": "tokenId",
          "type": "uint256"
        }
      ],
      "name": "transferFrom",
      "outputs": [],
      "stateMutability": "nonpayable",
      "type": "function"
    },
    {
      "inputs": [
        {
          "internalType": "address",
          "name": "to",
          "type": "address"
        },
        {
          "internalType": "string",
          "name": "tokenURI",
          "type": "string"
        }
      ],
      "name": "mint",
      "outputs": [
        {
          "internalType": "bool",
          "name": "",
          "type": "bool"
        }
      ],
      "stateMutability": "nonpayable",
      "type": "function"
    },
    {
      "inputs": [],
      "name": "getNextTokenId",
      "outputs": [
        {
          "internalType": "uint256",
          "name": "_nextTokenId",
          "type": "uint256"
        }
      ],
      "stateMutability": "view",
      "type": "function"
    }
  ],
  "bytecode": "0x60806040523480156200001157600080fd5b506040516200238b3803806200238b833981016040819052620000349162000589565b8282620000486301ffc9a760e01b620000c4565b81516200005d90600690602085019062000446565b5080516200007390600790602084019062000446565b50620000866380ac58cd60e01b620000c4565b62000098635b5e139f60e01b620000c4565b620000aa63780e9d6360e01b620000c4565b50620000b9905084826200011f565b50505050506200075c565b6001600160e01b03198082161415620000fa5760405162461bcd60e51b8152600401620000f19062000636565b60405180910390fd5b6001600160e01b0319166000908152602081905260409020805460ff19166001179055565b6000806200012c62000156565b600a8054600101905590506200014384826200017a565b6200014f818462000268565b5092915050565b6000620001756001600a54620002b860201b620008e71790919060201c565b905090565b6001600160a01b038216620001a35760405162461bcd60e51b8152600401620000f190620006db565b620001ae81620002e9565b15620001ce5760405162461bcd60e51b8152600401620000f1906200066d565b620001dc60008383620002b3565b6001600160a01b03821660009081526001602090815260409091206200020d9183906200090c62000306821b17901c565b506200022b818360026200031460201b62000918179092919060201c565b5060405181906001600160a01b038416906000907fddf252ad1be2c89b69c2b068fc378daa952ba7f163c4a11628f55a4df523b3ef908290a45050565b6200027382620002e9565b620002925760405162461bcd60e51b8152600401620000f19062000710565b60008281526008602090815260409091208251620002b39284019062000446565b505050565b600082820183811015620002e05760405162461bcd60e51b8152600401620000f190620006a4565b90505b92915050565b6000620002e38260026200033660201b620009381790919060201c565b6000620002e0838362000344565b60006200032c84846001600160a01b03851662000393565b90505b9392505050565b6000620002e083836200042e565b60006200035283836200042e565b6200038a57508154600181810184556000848152602080822090930184905584548482528286019093526040902091909155620002e3565b506000620002e3565b600082815260018401602052604081205480620003fa5750506040805180820182528381526020808201848152865460018181018955600089815284812095516002909302909501918255915190820155865486845281880190925292909120556200032f565b828560000160018303815481106200040e57fe5b90600052602060002090600202016001018190555060009150506200032f565b60009081526001919091016020526040902054151590565b828054600181600116156101000203166002900490600052602060002090601f016020900481019282601f106200048957805160ff1916838001178555620004b9565b82800160010185558215620004b9579182015b82811115620004b95782518255916020019190600101906200049c565b50620004c7929150620004cb565b5090565b5b80821115620004c75760008155600101620004cc565b600082601f830112620004f3578081fd5b81516001600160401b03808211156200050a578283fd5b6040516020601f8401601f19168201810183811183821017156200052c578586fd5b806040525081945083825286818588010111156200054957600080fd5b600092505b838310156200056d57858301810151828401820152918201916200054e565b838311156200057f5760008185840101525b5050505092915050565b600080600080608085870312156200059f578384fd5b84516001600160a01b0381168114620005b6578485fd5b60208601519094506001600160401b0380821115620005d3578485fd5b620005e188838901620004e2565b94506040870151915080821115620005f7578384fd5b6200060588838901620004e2565b935060608701519150808211156200061b578283fd5b506200062a87828801620004e2565b91505092959194509250565b6020808252601c908201527f4552433136353a20696e76616c696420696e7465726661636520696400000000604082015260600190565b6020808252601c908201527f4552433732313a20746f6b656e20616c7265616479206d696e74656400000000604082015260600190565b6020808252601b908201527f536166654d6174683a206164646974696f6e206f766572666c6f770000000000604082015260600190565b6020808252818101527f4552433732313a206d696e7420746f20746865207a65726f2061646472657373604082015260600190565b6020808252602c908201527f4552433732314d657461646174613a2055524920736574206f66206e6f6e657860408201526b34b9ba32b73a103a37b5b2b760a11b606082015260800190565b611c1f806200076c6000396000f3fe608060405234801561001057600080fd5b506004361061012b5760003560e01c80636352211e116100ad578063b88d4fde11610071578063b88d4fde14610255578063c87b56dd14610268578063caa0f92a1461027b578063d0def52114610283578063e985e9c5146102965761012b565b80636352211e1461020c5780636c0360eb1461021f57806370a082311461022757806395d89b411461023a578063a22cb465146102425761012b565b806318160ddd116100f457806318160ddd146101b857806323b872dd146101c05780632f745c59146101d357806342842e0e146101e65780634f6ccce7146101f95761012b565b80629a9b7b1461013057806301ffc9a71461014e57806306fdde031461016e578063081812fc14610183578063095ea7b3146101a3575b600080fd5b6101386102a9565b6040516101459190611b2b565b60405180910390f35b61016161015c366004611515565b6102af565b604051610145919061162d565b6101766102d2565b6040516101459190611638565b61019661019136600461154d565b610368565b60405161014591906115dc565b6101b66101b13660046114eb565b6103b4565b005b61013861044c565b6101b66101ce3660046113ba565b61045d565b6101386101e13660046114eb565b610495565b6101b66101f43660046113ba565b6104c0565b61013861020736600461154d565b6104db565b61019661021a36600461154d565b6104f1565b610176610519565b61013861023536600461136b565b61057a565b6101766105c3565b6101b6610250366004611462565b610624565b6101b66102633660046113fa565b6106f2565b61017661027636600461154d565b610731565b610138610877565b61016161029136600461149d565b610888565b6101616102a4366004611386565b6108b9565b600a5481565b6001600160e01b0319811660009081526020819052604090205460ff165b919050565b60068054604080516020601f600260001961010060018816150201909516949094049384018190048102820181019092528281526060939092909183018282801561035e5780601f106103335761010080835404028352916020019161035e565b820191906000526020600020905b81548152906001019060200180831161034157829003601f168201915b5050505050905090565b600061037382610944565b6103985760405162461bcd60e51b815260040161038f90611932565b60405180910390fd5b506000908152600460205260409020546001600160a01b031690565b60006103bf826104f1565b9050806001600160a01b0316836001600160a01b031614156103f35760405162461bcd60e51b815260040161038f90611a62565b806001600160a01b0316610405610951565b6001600160a01b031614806104215750610421816102a4610951565b61043d5760405162461bcd60e51b815260040161038f90611814565b6104478383610955565b505050565b600061045860026109c3565b905090565b61046e610468610951565b826109ce565b61048a5760405162461bcd60e51b815260040161038f90611aa3565b610447838383610a53565b6001600160a01b03821660009081526001602052604081206104b79083610b61565b90505b92915050565b610447838383604051806020016040528060008152506106f2565b6000806104e9600284610b6d565b509392505050565b60006104ba82604051806060016040528060298152602001611bc16029913960029190610b89565b60098054604080516020601f600260001961010060018816150201909516949094049384018190048102820181019092528281526060939092909183018282801561035e5780601f106103335761010080835404028352916020019161035e565b60006001600160a01b0382166105a25760405162461bcd60e51b815260040161038f90611871565b6001600160a01b03821660009081526001602052604090206104ba906109c3565b60078054604080516020601f600260001961010060018816150201909516949094049384018190048102820181019092528281526060939092909183018282801561035e5780601f106103335761010080835404028352916020019161035e565b61062c610951565b6001600160a01b0316826001600160a01b0316141561065d5760405162461bcd60e51b815260040161038f90611791565b806005600061066a610951565b6001600160a01b03908116825260208083019390935260409182016000908120918716808252919093529120805460ff1916921515929092179091556106ae610951565b6001600160a01b03167f17307eab39ab6107e8899845ad3d59bd9653f200f220920489ca2b5937696c31836040516106e6919061162d565b60405180910390a35050565b6107036106fd610951565b836109ce565b61071f5760405162461bcd60e51b815260040161038f90611aa3565b61072b84848484610b96565b50505050565b606061073c82610944565b6107585760405162461bcd60e51b815260040161038f90611a13565b60008281526008602090815260409182902080548351601f60026000196101006001861615020190931692909204918201849004840281018401909452808452606093928301828280156107ed5780601f106107c2576101008083540402835291602001916107ed565b820191906000526020600020905b8154815290600101906020018083116107d057829003601f168201915b5050505050905060606107fe610519565b9050805160001415610812575090506102cd565b81511561084457808260405160200161082c9291906115ad565b604051602081830303815290604052925050506102cd565b8061084e85610bc9565b60405160200161085f9291906115ad565b60405160208183030381529060405292505050919050565b600a546000906104589060016108e7565b600080610893610877565b600a8054600101905590506108a88482610ca4565b6108b28184610d68565b5092915050565b6001600160a01b03918216600090815260056020908152604080832093909416825291909152205460ff1690565b6000828201838110156104b75760405162461bcd60e51b815260040161038f90611716565b60006104b78383610dac565b600061092e84846001600160a01b038516610df6565b90505b9392505050565b60006104b78383610e8d565b60006104ba600283610938565b3390565b600081815260046020526040902080546001600160a01b0319166001600160a01b038416908117909155819061098a826104f1565b6001600160a01b03167f8c5be1e5ebec7d5bd14f71427d1e84f3dd0314c0f7b2291e5b200ac8c7c3b92560405160405180910390a45050565b60006104ba82610ea5565b60006109d982610944565b6109f55760405162461bcd60e51b815260040161038f906117c8565b6000610a00836104f1565b9050806001600160a01b0316846001600160a01b03161480610a3b5750836001600160a01b0316610a3084610368565b6001600160a01b0316145b80610a4b5750610a4b81856108b9565b949350505050565b826001600160a01b0316610a66826104f1565b6001600160a01b031614610a8c5760405162461bcd60e51b815260040161038f906119ca565b6001600160a01b038216610ab25760405162461bcd60e51b815260040161038f9061174d565b610abd838383610447565b610ac8600082610955565b6001600160a01b0383166000908152600160205260409020610aea9082610ea9565b506001600160a01b0382166000908152600160205260409020610b0d908261090c565b50610b1a60028284610918565b5080826001600160a01b0316846001600160a01b03167fddf252ad1be2c89b69c2b068fc378daa952ba7f163c4a11628f55a4df523b3ef60405160405180910390a4505050565b60006104b78383610eb5565b6000808080610b7c8686610efa565b9097909650945050505050565b600061092e848484610f56565b610ba1848484610a53565b610bad84848484610fb5565b61072b5760405162461bcd60e51b815260040161038f9061168d565b606081610bee57506040805180820190915260018152600360fc1b60208201526102cd565b8160005b8115610c0657600101600a82049150610bf2565b60608167ffffffffffffffff81118015610c1f57600080fd5b506040519080825280601f01601f191660200182016040528015610c4a576020820181803683370190505b50859350905060001982015b8315610c9b57600a840660300160f81b82828060019003935081518110610c7957fe5b60200101906001600160f81b031916908160001a905350600a84049350610c56565b50949350505050565b6001600160a01b038216610cca5760405162461bcd60e51b815260040161038f906118fd565b610cd381610944565b15610cf05760405162461bcd60e51b815260040161038f906116df565b610cfc60008383610447565b6001600160a01b0382166000908152600160205260409020610d1e908261090c565b50610d2b60028284610918565b5060405181906001600160a01b038416906000907fddf252ad1be2c89b69c2b068fc378daa952ba7f163c4a11628f55a4df523b3ef908290a45050565b610d7182610944565b610d8d5760405162461bcd60e51b815260040161038f9061197e565b6000828152600860209081526040909120825161044792840190611243565b6000610db88383610e8d565b610dee575081546001818101845560008481526020808220909301849055845484825282860190935260409020919091556104ba565b5060006104ba565b600082815260018401602052604081205480610e5b575050604080518082018252838152602080820184815286546001818101895560008981528481209551600290930290950191825591519082015586548684528188019092529290912055610931565b82856000016001830381548110610e6e57fe5b9060005260206000209060020201600101819055506000915050610931565b60009081526001919091016020526040902054151590565b5490565b60006104b78383611094565b81546000908210610ed85760405162461bcd60e51b815260040161038f9061164b565b826000018281548110610ee757fe5b9060005260206000200154905092915050565b815460009081908310610f1f5760405162461bcd60e51b815260040161038f906118bb565b6000846000018481548110610f3057fe5b906000526020600020906002020190508060000154816001015492509250509250929050565b60008281526001840160205260408120548281610f865760405162461bcd60e51b815260040161038f9190611638565b50846000016001820381548110610f9957fe5b9060005260206000209060020201600101549150509392505050565b6000610fc9846001600160a01b031661115a565b610fd557506001610a4b565b606061105d630a85bd0160e11b610fea610951565b88878760405160240161100094939291906115f0565b604051602081830303815290604052906001600160e01b0319166020820180516001600160e01b038381831617835250505050604051806060016040528060328152602001611b8f603291396001600160a01b0388169190611160565b90506000818060200190518101906110759190611531565b6001600160e01b031916630a85bd0160e11b1492505050949350505050565b6000818152600183016020526040812054801561115057835460001980830191908101906000908790839081106110c757fe5b90600052602060002001549050808760000184815481106110e457fe5b60009182526020808320909101929092558281526001898101909252604090209084019055865487908061111457fe5b600190038181906000526020600020016000905590558660010160008781526020019081526020016000206000905560019450505050506104ba565b60009150506104ba565b3b151590565b606061092e8484600085856111748561115a565b6111905760405162461bcd60e51b815260040161038f90611af4565b60006060866001600160a01b031685876040516111ad9190611591565b60006040518083038185875af1925050503d80600081146111ea576040519150601f19603f3d011682016040523d82523d6000602084013e6111ef565b606091505b50915091506111ff82828661120a565b979650505050505050565b60608315611219575081610931565b8251156112295782518084602001fd5b8160405162461bcd60e51b815260040161038f9190611638565b828054600181600116156101000203166002900490600052602060002090601f016020900481019282601f1061128457805160ff19168380011785556112b1565b828001600101855582156112b1579182015b828111156112b1578251825591602001919060010190611296565b506112bd9291506112c1565b5090565b5b808211156112bd57600081556001016112c2565b80356001600160a01b03811681146104ba57600080fd5b600082601f8301126112fd578081fd5b813567ffffffffffffffff80821115611314578283fd5b604051601f8301601f191681016020018281118282101715611334578485fd5b60405282815292508284830160200186101561134f57600080fd5b8260208601602083013760006020848301015250505092915050565b60006020828403121561137c578081fd5b6104b783836112d6565b60008060408385031215611398578081fd5b6113a284846112d6565b91506113b184602085016112d6565b90509250929050565b6000806000606084860312156113ce578081fd5b83356113d981611b60565b925060208401356113e981611b60565b929592945050506040919091013590565b6000806000806080858703121561140f578081fd5b61141986866112d6565b935061142886602087016112d6565b925060408501359150606085013567ffffffffffffffff81111561144a578182fd5b611456878288016112ed565b91505092959194509250565b60008060408385031215611474578182fd5b61147e84846112d6565b915060208301358015158114611492578182fd5b809150509250929050565b600080604083850312156114af578182fd5b82356114ba81611b60565b9150602083013567ffffffffffffffff8111156114d5578182fd5b6114e1858286016112ed565b9150509250929050565b600080604083850312156114fd578182fd5b61150784846112d6565b946020939093013593505050565b600060208284031215611526578081fd5b81356104b781611b78565b600060208284031215611542578081fd5b81516104b781611b78565b60006020828403121561155e578081fd5b5035919050565b6000815180845261157d816020860160208601611b34565b601f01601f19169290920160200192915050565b600082516115a3818460208701611b34565b9190910192915050565b600083516115bf818460208801611b34565b8351908301906115d3818360208801611b34565b01949350505050565b6001600160a01b0391909116815260200190565b6001600160a01b038581168252841660208201526040810183905260806060820181905260009061162390830184611565565b9695505050505050565b901515815260200190565b6000602082526104b76020830184611565565b60208082526022908201527f456e756d657261626c655365743a20696e646578206f7574206f6620626f756e604082015261647360f01b606082015260800190565b60208082526032908201527f4552433732313a207472616e7366657220746f206e6f6e20455243373231526560408201527131b2b4bb32b91034b6b83632b6b2b73a32b960711b606082015260800190565b6020808252601c908201527f4552433732313a20746f6b656e20616c7265616479206d696e74656400000000604082015260600190565b6020808252601b908201527f536166654d6174683a206164646974696f6e206f766572666c6f770000000000604082015260600190565b60208082526024908201527f4552433732313a207472616e7366657220746f20746865207a65726f206164646040820152637265737360e01b606082015260800190565b60208082526019908201527f4552433732313a20617070726f766520746f2063616c6c657200000000000000604082015260600190565b6020808252602c908201527f4552433732313a206f70657261746f7220717565727920666f72206e6f6e657860408201526b34b9ba32b73a103a37b5b2b760a11b606082015260800190565b60208082526038908201527f4552433732313a20617070726f76652063616c6c6572206973206e6f74206f7760408201527f6e6572206e6f7220617070726f76656420666f7220616c6c0000000000000000606082015260800190565b6020808252602a908201527f4552433732313a2062616c616e636520717565727920666f7220746865207a65604082015269726f206164647265737360b01b606082015260800190565b60208082526022908201527f456e756d657261626c654d61703a20696e646578206f7574206f6620626f756e604082015261647360f01b606082015260800190565b6020808252818101527f4552433732313a206d696e7420746f20746865207a65726f2061646472657373604082015260600190565b6020808252602c908201527f4552433732313a20617070726f76656420717565727920666f72206e6f6e657860408201526b34b9ba32b73a103a37b5b2b760a11b606082015260800190565b6020808252602c908201527f4552433732314d657461646174613a2055524920736574206f66206e6f6e657860408201526b34b9ba32b73a103a37b5b2b760a11b606082015260800190565b60208082526029908201527f4552433732313a207472616e73666572206f6620746f6b656e2074686174206960408201526839903737ba1037bbb760b91b606082015260800190565b6020808252602f908201527f4552433732314d657461646174613a2055524920717565727920666f72206e6f60408201526e3732bc34b9ba32b73a103a37b5b2b760891b606082015260800190565b60208082526021908201527f4552433732313a20617070726f76616c20746f2063757272656e74206f776e656040820152603960f91b606082015260800190565b60208082526031908201527f4552433732313a207472616e736665722063616c6c6572206973206e6f74206f6040820152701ddb995c881b9bdc88185c1c1c9bdd9959607a1b606082015260800190565b6020808252601d908201527f416464726573733a2063616c6c20746f206e6f6e2d636f6e7472616374000000604082015260600190565b90815260200190565b60005b83811015611b4f578181015183820152602001611b37565b8381111561072b5750506000910152565b6001600160a01b0381168114611b7557600080fd5b50565b6001600160e01b031981168114611b7557600080fdfe4552433732313a207472616e7366657220746f206e6f6e20455243373231526563656976657220696d706c656d656e7465724552433732313a206f776e657220717565727920666f72206e6f6e6578697374656e7420746f6b656ea26469706673582212204be283a474c70db036c16e35fbc0378c3b182b645b347c451209e57efbe5d13964736f6c634300060c0033",
  "immutableReferences": {},
  "source": "// SPDX-License-Identifier: MIT\npragma solidity 0.6.12;\npragma experimental ABIEncoderV2;\n\nimport { ERC721 } from \"@openzeppelin/contracts/token/ERC721/ERC721.sol\";\nimport { SafeMath } from \"@openzeppelin/contracts/math/SafeMath.sol\";\n\n\n/**\n * @notice - This is the NFT contract for a green\n */\ncontract GreenNFT is ERC721 {\n    using SafeMath for uint256;\n\n    uint256 public currentTokenId;\n    \n    constructor(\n        address _projectOwner,  // Initial owner (Seller)\n        string memory _projectName, \n        string memory _projectSymbol,\n        string memory _tokenURI    // [Note]: TokenURI is URL include ipfs hash\n        //uint greenNFTPrice\n    ) \n        public \n        ERC721(_projectName, _projectSymbol) \n    {\n        mint(_projectOwner, _tokenURI);\n    }\n\n    /** \n     * @dev mint a GreenNFT\n     * @dev tokenURI - URL include ipfs hash\n     */\n    function mint(address to, string memory tokenURI) public returns (bool) {\n        // Mint a new GreenNFT\n        uint newTokenId = getNextTokenId();\n        currentTokenId++;\n        _mint(to, newTokenId);\n        _setTokenURI(newTokenId, tokenURI);\n    }\n\n\n    //--------------------------------------\n    // Getter methods\n    //--------------------------------------\n\n\n    //--------------------------------------\n    // Private methods\n    //--------------------------------------\n    function getNextTokenId() public view returns (uint _nextTokenId) {\n        return currentTokenId.add(1);\n    }\n    \n\n}\n",
  "sourcePath": "/home/saicharith/dev/carbon-credits-marketplace/smart-contract/contracts/GreenNFT.sol",
  "compiler": {
    "name": "solc",
    "version": "0.6.12+commit.27d51765.Emscripten.clang"
  },
  "schemaVersion": "3.4.16",
  "updatedAt": "2024-05-06T06:44:06.332Z",
  "devdoc": {
    "kind": "dev",
    "methods": {
      "approve(address,uint256)": {
        "details": "See {IERC721-approve}."
      },
      "balanceOf(address)": {
        "details": "See {IERC721-balanceOf}."
      },
      "baseURI()": {
        "details": "Returns the base URI set via {_setBaseURI}. This will be automatically added as a prefix in {tokenURI} to each token's URI, or to the token ID if no specific URI is set for that token ID."
      },
      "getApproved(uint256)": {
        "details": "See {IERC721-getApproved}."
      },
      "isApprovedForAll(address,address)": {
        "details": "See {IERC721-isApprovedForAll}."
      },
      "mint(address,string)": {
        "details": "mint a GreenNFTtokenURI - URL include ipfs hash"
      },
      "name()": {
        "details": "See {IERC721Metadata-name}."
      },
      "ownerOf(uint256)": {
        "details": "See {IERC721-ownerOf}."
      },
      "safeTransferFrom(address,address,uint256)": {
        "details": "See {IERC721-safeTransferFrom}."
      },
      "safeTransferFrom(address,address,uint256,bytes)": {
        "details": "See {IERC721-safeTransferFrom}."
      },
      "setApprovalForAll(address,bool)": {
        "details": "See {IERC721-setApprovalForAll}."
      },
      "supportsInterface(bytes4)": {
        "details": "See {IERC165-supportsInterface}. Time complexity O(1), guaranteed to always use less than 30 000 gas."
      },
      "symbol()": {
        "details": "See {IERC721Metadata-symbol}."
      },
      "tokenByIndex(uint256)": {
        "details": "See {IERC721Enumerable-tokenByIndex}."
      },
      "tokenOfOwnerByIndex(address,uint256)": {
        "details": "See {IERC721Enumerable-tokenOfOwnerByIndex}."
      },
      "tokenURI(uint256)": {
        "details": "See {IERC721Metadata-tokenURI}."
      },
      "totalSupply()": {
        "details": "See {IERC721Enumerable-totalSupply}."
      },
      "transferFrom(address,address,uint256)": {
        "details": "See {IERC721-transferFrom}."
      }
    },
    "version": 1
  },
  "userdoc": {
    "kind": "user",
    "methods": {},
    "notice": "- This is the NFT contract for a green",
    "version": 1
  }
}