{
  "contractName": "GreenNFTMarketPlace",
  "abi": [
    {
      "inputs": [
        {
          "internalType": "contract GreenNFTData",
          "name": "_greenNFTData",
          "type": "address"
        },
        {
          "internalType": "contract CarbonCreditToken",
          "name": "_carbonCreditToken",
          "type": "address"
        }
      ],
      "stateMutability": "nonpayable",
      "type": "constructor"
    },
    {
      "inputs": [],
      "name": "GREEN_NFT_MARKETPLACE",
      "outputs": [
        {
          "internalType": "address",
          "name": "",
          "type": "address"
        }
      ],
      "stateMutability": "view",
      "type": "function",
      "constant": true
    },
    {
      "inputs": [
        {
          "internalType": "contract GreenNFTData",
          "name": "_greenNFTData",
          "type": "address"
        },
        {
          "internalType": "contract GreenNFT",
          "name": "greenNFT",
          "type": "address"
        }
      ],
      "name": "cancelToPutOnSale",
      "outputs": [],
      "stateMutability": "nonpayable",
      "type": "function"
    },
    {
      "inputs": [],
      "name": "carbonCreditToken",
      "outputs": [
        {
          "internalType": "contract CarbonCreditToken",
          "name": "",
          "type": "address"
        }
      ],
      "stateMutability": "view",
      "type": "function",
      "constant": true
    },
    {
      "inputs": [],
      "name": "greenNFTData",
      "outputs": [
        {
          "internalType": "contract GreenNFTData",
          "name": "",
          "type": "address"
        }
      ],
      "stateMutability": "view",
      "type": "function",
      "constant": true
    },
    {
      "inputs": [
        {
          "internalType": "contract GreenNFTData",
          "name": "_greenNFTData",
          "type": "address"
        },
        {
          "internalType": "contract GreenNFT",
          "name": "greenNFT",
          "type": "address"
        }
      ],
      "name": "openToPutOnSale",
      "outputs": [],
      "stateMutability": "nonpayable",
      "type": "function"
    },
    {
      "inputs": [
        {
          "internalType": "contract GreenNFT",
          "name": "_greenNFT",
          "type": "address"
        },
        {
          "internalType": "uint256",
          "name": "orderOfCarbonCredits",
          "type": "uint256"
        }
      ],
      "name": "buyCarbonCredits",
      "outputs": [
        {
          "internalType": "bool",
          "name": "",
          "type": "bool"
        }
      ],
      "stateMutability": "payable",
      "type": "function",
      "payable": true
    },
    {
      "inputs": [
        {
          "internalType": "contract GreenNFT",
          "name": "_greenNFT",
          "type": "address"
        }
      ],
      "name": "getBuyableCarbonCredits",
      "outputs": [
        {
          "internalType": "uint256",
          "name": "_buyableCarbonCredits",
          "type": "uint256"
        }
      ],
      "stateMutability": "view",
      "type": "function",
      "constant": true
    },
    {
      "inputs": [
        {
          "internalType": "uint256",
          "name": "orderOfCarbonCredits",
          "type": "uint256"
        }
      ],
      "name": "getPurchaseAmountOfCarbonCredits",
      "outputs": [
        {
          "internalType": "uint256",
          "name": "_purchaseAmountOfCarbonCredits",
          "type": "uint256"
        }
      ],
      "stateMutability": "view",
      "type": "function",
      "constant": true
    }
  ],
  "bytecode": "0x60806040526001805534801561001457600080fd5b50604051610f10380380610f1083398101604081905261003391610074565b600080546001600160a01b039283166001600160a01b03199182168117909255600380549490931693811693909317909155600480549092161790556100c5565b60008060408385031215610086578182fd5b8251610091816100ad565b60208401519092506100a2816100ad565b809150509250929050565b6001600160a01b03811681146100c257600080fd5b50565b610e3c806100d46000396000f3fe60806040526004361061007b5760003560e01c80638b2126611161004e5780638b212661146100f75780639d906c2d14610117578063bf8543d714610144578063e75ad115146101645761007b565b80630525530a14610080578063225bfe6b146100a257806341abe1ae146100cd57806366dea358146100e2575b600080fd5b34801561008c57600080fd5b506100a061009b366004610982565b610184565b005b3480156100ae57600080fd5b506100b7610322565b6040516100c49190610c80565b60405180910390f35b3480156100d957600080fd5b506100b7610331565b3480156100ee57600080fd5b506100b7610340565b34801561010357600080fd5b506100a0610112366004610982565b61034f565b34801561012357600080fd5b506101376101323660046109ba565b610494565b6040516100c49190610dbe565b34801561015057600080fd5b5061013761015f366004610c68565b610529565b6101776101723660046109d6565b610530565b6040516100c49190610cd1565b604051630898b77f60e31b815282906001600160a01b038216906344c5bbf8906101b5908590600290600401610cdc565b602060405180830381600087803b1580156101cf57600080fd5b505af11580156101e3573d6000803e3d6000fd5b505050506040513d601f19601f82011682018060405250810190610207919061095b565b50610210610809565b604051633fbd34c960e01b81526001600160a01b03831690633fbd34c99061023c908690600401610c80565b60806040518083038186803b15801561025457600080fd5b505afa158015610268573d6000803e3d6000fd5b505050506040513d601f19601f8201168201806040525081019061028c9190610aa6565b604080820151600054915163a9059cbb60e01b81529293509133916001600160a01b03169063a9059cbb906102c79084908690600401610cb8565b602060405180830381600087803b1580156102e157600080fd5b505af11580156102f5573d6000803e3d6000fd5b505050506040513d601f19601f82011682018060405250810190610319919061095b565b50505050505050565b6003546001600160a01b031681565b6002546001600160a01b031681565b6004546001600160a01b031681565b604051630898b77f60e31b815282906001600160a01b038216906344c5bbf890610380908590600190600401610cdc565b602060405180830381600087803b15801561039a57600080fd5b505af11580156103ae573d6000803e3d6000fd5b505050506040513d601f19601f820116820180604052508101906103d2919061095b565b506103db610809565b604051633fbd34c960e01b81526001600160a01b03831690633fbd34c990610407908690600401610c80565b60806040518083038186803b15801561041f57600080fd5b505afa158015610433573d6000803e3d6000fd5b505050506040513d601f19601f820116820180604052508101906104579190610aa6565b60408082015160005491516323b872dd60e01b81529293509133916001600160a01b0316906323b872dd906102c790849030908790600401610c94565b600061049e610809565b600354604051633fbd34c960e01b81526001600160a01b0390911690633fbd34c9906104ce908690600401610c80565b60806040518083038186803b1580156104e657600080fd5b505afa1580156104fa573d6000803e3d6000fd5b505050506040513d601f19601f8201168201806040525081019061051e9190610aa6565b606001519392505050565b6001540290565b6000338161053d85610494565b9050808411156105685760405162461bcd60e51b815260040161055f90610d03565b60405180910390fd5b610570610831565b60035460405163dc0daef360e01b81526001600160a01b039091169063dc0daef3906105a0908990600401610c80565b60006040518083038186803b1580156105b857600080fd5b505afa1580156105cc573d6000803e3d6000fd5b505050506040513d6000823e601f3d908101601f191682016040526105f49190810190610aed565b6003546020820151604051635aef244760e01b81529293506000926001600160a01b0390921691635aef24479161062d91600401610dbe565b60006040518083038186803b15801561064557600080fd5b505afa158015610659573d6000803e3d6000fd5b505050506040513d6000823e601f3d908101601f191682016040526106819190810190610a01565b51600354604051631e1e7e5960e31b81529192506000916001600160a01b039091169063f0f3f2c8906106b8908590600401610dbe565b60006040518083038186803b1580156106d057600080fd5b505afa1580156106e4573d6000803e3d6000fd5b505050506040513d6000823e601f3d908101601f1916820160405261070c9190810190610bdd565b51905080600061071b89610529565b905034811461073c5760405162461bcd60e51b815260040161055f90610d61565b6040516001600160a01b0383169082156108fc029083906000818181858888f19350505050158015610772573d6000803e3d6000fd5b506004805460405163a9059cbb60e01b81526001600160a01b039091169163a9059cbb916107a4918b91869101610cb8565b602060405180830381600087803b1580156107be57600080fd5b505af11580156107d2573d6000803e3d6000fd5b505050506040513d601f19601f820116820180604052508101906107f6919061095b565b5060019750505050505050505b92915050565b6040518060800160405280600081526020016000815260200160008152602001600081525090565b604051806101400160405280600081526020016000815260200160006001600160a01b0316815260200160006001600160a01b0316815260200160006001600160a01b0316815260200160008152602001600081526020016000815260200160608152602001600060028111156108a457fe5b905290565b805161080381610dee565b8051801515811461080357600080fd5b80516003811061080357600080fd5b600082601f8301126108e3578081fd5b815167ffffffffffffffff8111156108f9578182fd5b602061090d601f8301601f19168201610dc7565b9250818352848183860101111561092357600080fd5b60005b82811015610941578481018201518482018301528101610926565b828111156109525760008284860101525b50505092915050565b60006020828403121561096c578081fd5b8151801515811461097b578182fd5b9392505050565b60008060408385031215610994578081fd5b823561099f81610dee565b915060208301356109af81610dee565b809150509250929050565b6000602082840312156109cb578081fd5b813561097b81610dee565b600080604083850312156109e8578182fd5b82356109f381610dee565b946020939093013593505050565b600060208284031215610a12578081fd5b815167ffffffffffffffff80821115610a29578283fd5b9083019060c08286031215610a3c578283fd5b610a4660c0610dc7565b82518152602083015160208201526040830151604082015260608301516060820152608083015182811115610a79578485fd5b610a85878286016108d3565b608083015250610a988660a085016108b4565b60a082015295945050505050565b600060808284031215610ab7578081fd5b610ac16080610dc7565b825181526020830151602082015260408301516040820152606083015160608201528091505092915050565b600060208284031215610afe578081fd5b815167ffffffffffffffff80821115610b15578283fd5b8184019150610140808387031215610b2b578384fd5b610b3481610dc7565b90508251815260208301516020820152610b5186604085016108a9565b6040820152610b6386606085016108a9565b6060820152610b7586608085016108a9565b608082015260a083015160a082015260c083015160c082015260e083015160e08201526101008084015183811115610bab578586fd5b610bb7888287016108d3565b8284015250506101209150610bce868385016108c4565b91810191909152949350505050565b600060208284031215610bee578081fd5b815167ffffffffffffffff80821115610c05578283fd5b9083019060608286031215610c18578283fd5b610c226060610dc7565b8251610c2d81610dee565b8152602083015182811115610c40578485fd5b610c4c878286016108d3565b6020830152506040830151604082015280935050505092915050565b600060208284031215610c79578081fd5b5035919050565b6001600160a01b0391909116815260200190565b6001600160a01b039384168152919092166020820152604081019190915260600190565b6001600160a01b03929092168252602082015260400190565b901515815260200190565b6001600160a01b03831681526040810160038310610cf657fe5b8260208301529392505050565b602080825260409082018190527f4f72646572206f6620636172626f6e2063726564697473206d75737420626520908201527f6c657373207468616e2062757961626c6520636172626f6e2063726564697473606082015260800190565b6020808252603c908201527f507572636861736520616d6f756e74206f6620636172626f6e2063726564697460408201527f73206d75737420626520657175616c20746f206d73672e76616c756500000000606082015260800190565b90815260200190565b60405181810167ffffffffffffffff81118282101715610de657600080fd5b604052919050565b6001600160a01b0381168114610e0357600080fd5b5056fea26469706673582212202156f2350fed18923d501d8da1602894f981d8a6334916e9c8805379826497fa64736f6c634300060c0033",
  "immutableReferences": {},
  "source": "// SPDX-License-Identifier: MIT\npragma solidity 0.6.12;\npragma experimental ABIEncoderV2;\n\nimport {SafeMath} from \"@openzeppelin/contracts/math/SafeMath.sol\";\nimport {GreenNFTMarketplaceCommons} from \"./commons/GreenNFTMarketPlaceCommons.sol\";\nimport {GreenNFT} from \"./GreenNFT.sol\";\nimport {GreenNFTTradable} from \"./GreenNFTTradable.sol\";\nimport {GreenNFTData} from \"./GreenNFTData.sol\";\nimport {CarbonCreditToken} from \"./CarbonCreditToken.sol\";\n\ncontract GreenNFTMarketPlace is GreenNFTTradable, GreenNFTMarketplaceCommons {\n    using SafeMath for uint256;\n\n    uint256 unitPriceOfCarbonCredits = 1; // 1 ETH per 1 carbon credits\n\n    address public GREEN_NFT_MARKETPLACE;\n\n    GreenNFTData public greenNFTData;\n    CarbonCreditToken public carbonCreditToken;\n\n    constructor(\n        GreenNFTData _greenNFTData,\n        CarbonCreditToken _carbonCreditToken\n    ) public GreenNFTTradable(_carbonCreditToken) {\n        greenNFTData = _greenNFTData;\n        carbonCreditToken = _carbonCreditToken;\n\n        address(uint160(address(this)));\n    }\n\n    /**\n     * @notice - Buy function that a buyer (msg.sender) purchases carbon credits from a seller.\n     */\n    function buyCarbonCredits(\n        GreenNFT _greenNFT,\n        uint256 orderOfCarbonCredits\n    ) public payable returns (bool) {\n        address buyer = msg.sender; // In advance, a buyer must transfer msg.value.\n\n        // Check whether orderOfCarbonCredits is less than buyableCarbonCredits\n        uint256 buyableCarbonCredits = getBuyableCarbonCredits(_greenNFT);\n        require(\n            orderOfCarbonCredits <= buyableCarbonCredits,\n            \"Order of carbon credits must be less than buyable carbon credits\"\n        );\n\n        GreenNFTData.GreenNFTMetadata memory greenNFTMetadata = greenNFTData\n            .getGreenNFTMetadataByNFTAddress(_greenNFT);\n        uint256 _projectId = greenNFTData\n            .getClaim(greenNFTMetadata.claimId)\n            .projectId;\n        address _seller = greenNFTData.getProject(_projectId).projectOwner;\n        address payable seller = address(uint160(_seller)); // Convert owner address with payable\n\n        // Calculate purchase amount (Unit price * buyable carbon credits)\n        uint256 purchaseAmountOfCarbonCredits = getPurchaseAmountOfCarbonCredits(\n                orderOfCarbonCredits\n            );\n        require(\n            purchaseAmountOfCarbonCredits == msg.value,\n            \"Purchase amount of carbon credits must be equal to msg.value\"\n        );\n\n        // ETH amount purchased is transferred from a buyer's wallet to the projectOwner's (seller's) wallet\n        seller.transfer(purchaseAmountOfCarbonCredits);\n\n        // CCTs (Carbon Credit Tokens) are transferred into the buyer's wallet address\n        carbonCreditToken.transfer(buyer, purchaseAmountOfCarbonCredits);\n        return true;\n    }\n\n    //--------------------------\n    // Getter methods\n    //--------------------------\n\n    /**\n     * @notice - Get buyable carbon credits\n     */\n    function getBuyableCarbonCredits(\n        GreenNFT _greenNFT\n    ) public view returns (uint256 _buyableCarbonCredits) {\n        GreenNFTData.GreenNFTEmissonData\n            memory greenNFTEmissonData = greenNFTData\n                .getGreenNFTEmissonDataByNFTAddress(_greenNFT);\n        return greenNFTEmissonData.buyableCarbonCredits;\n    }\n\n    /**\n     * @notice - Calculate purchase amount (Unit price * order of carbon credits)\n     */\n    function getPurchaseAmountOfCarbonCredits(\n        uint256 orderOfCarbonCredits\n    ) public view returns (uint256 _purchaseAmountOfCarbonCredits) {\n        uint256 purchaseAmountOfCarbonCredits = unitPriceOfCarbonCredits *\n            orderOfCarbonCredits; // 1 ETH * order of carbon credits\n        return purchaseAmountOfCarbonCredits;\n    }\n}\n",
  "sourcePath": "/home/saicharith/dev/carbon-credits-marketplace/smart-contract/contracts/GreenNFTMarketPlace.sol",
  "compiler": {
    "name": "solc",
    "version": "0.6.12+commit.27d51765.Emscripten.clang"
  },
  "schemaVersion": "3.4.16",
  "updatedAt": "2024-05-07T19:58:25.983Z",
  "networkType": "ethereum",
  "devdoc": {
    "kind": "dev",
    "methods": {},
    "version": 1
  },
  "userdoc": {
    "kind": "user",
    "methods": {
      "buyCarbonCredits(address,uint256)": {
        "notice": "- Buy function that a buyer (msg.sender) purchases carbon credits from a seller."
      },
      "cancelToPutOnSale(address,address)": {
        "notice": "- Cancel to put on sale of carbon credits.- Caller is a seller"
      },
      "getBuyableCarbonCredits(address)": {
        "notice": "- Get buyable carbon credits"
      },
      "getPurchaseAmountOfCarbonCredits(uint256)": {
        "notice": "- Calculate purchase amount (Unit price * order of carbon credits)"
      },
      "openToPutOnSale(address,address)": {
        "notice": "- Open to put on sale of carbon credits.- Caller is a projectOwner (Seller)"
      }
    },
    "version": 1
  }
}