{
  "contractName": "GreenNFTDataCommons",
  "abi": [
    {
      "inputs": [
        {
          "internalType": "uint256",
          "name": "",
          "type": "uint256"
        }
      ],
      "name": "claims",
      "outputs": [
        {
          "internalType": "uint256",
          "name": "projectId",
          "type": "uint256"
        },
        {
          "internalType": "uint256",
          "name": "co2Reductions",
          "type": "uint256"
        },
        {
          "internalType": "uint256",
          "name": "startOfPeriod",
          "type": "uint256"
        },
        {
          "internalType": "uint256",
          "name": "endOfPeriod",
          "type": "uint256"
        },
        {
          "internalType": "string",
          "name": "referenceDocument",
          "type": "string"
        },
        {
          "internalType": "bool",
          "name": "audited",
          "type": "bool"
        }
      ],
      "stateMutability": "view",
      "type": "function"
    },
    {
      "inputs": [
        {
          "internalType": "uint256",
          "name": "",
          "type": "uint256"
        }
      ],
      "name": "greenNFTEmissonDatas",
      "outputs": [
        {
          "internalType": "uint256",
          "name": "co2Emissions",
          "type": "uint256"
        },
        {
          "internalType": "uint256",
          "name": "co2Reductions",
          "type": "uint256"
        },
        {
          "internalType": "uint256",
          "name": "carbonCredits",
          "type": "uint256"
        },
        {
          "internalType": "uint256",
          "name": "buyableCarbonCredits",
          "type": "uint256"
        }
      ],
      "stateMutability": "view",
      "type": "function"
    },
    {
      "inputs": [
        {
          "internalType": "uint256",
          "name": "",
          "type": "uint256"
        }
      ],
      "name": "greenNFTMetadatas",
      "outputs": [
        {
          "internalType": "uint256",
          "name": "projectId",
          "type": "uint256"
        },
        {
          "internalType": "uint256",
          "name": "claimId",
          "type": "uint256"
        },
        {
          "internalType": "contract GreenNFT",
          "name": "greenNFT",
          "type": "address"
        },
        {
          "internalType": "address",
          "name": "projectOwner",
          "type": "address"
        },
        {
          "internalType": "address",
          "name": "auditor",
          "type": "address"
        },
        {
          "internalType": "uint256",
          "name": "timestampOfissuedDate",
          "type": "uint256"
        },
        {
          "internalType": "uint256",
          "name": "startOfPeriod",
          "type": "uint256"
        },
        {
          "internalType": "uint256",
          "name": "endOfPeriod",
          "type": "uint256"
        },
        {
          "internalType": "string",
          "name": "auditedReport",
          "type": "string"
        },
        {
          "internalType": "enum GreenNFTDataCommons.GreenNFTStatus",
          "name": "greenNFTStatus",
          "type": "uint8"
        }
      ],
      "stateMutability": "view",
      "type": "function"
    },
    {
      "inputs": [
        {
          "internalType": "uint256",
          "name": "",
          "type": "uint256"
        }
      ],
      "name": "projects",
      "outputs": [
        {
          "internalType": "address",
          "name": "projectOwner",
          "type": "address"
        },
        {
          "internalType": "string",
          "name": "projectName",
          "type": "string"
        },
        {
          "internalType": "uint256",
          "name": "co2Emissions",
          "type": "uint256"
        }
      ],
      "stateMutability": "view",
      "type": "function"
    }
  ],
  "bytecode": "0x608060405234801561001057600080fd5b5061060e806100206000396000f3fe608060405234801561001057600080fd5b506004361061004c5760003560e01c8063107046bd14610051578063a888c2cd146100fd578063df542dac146101b7578063fd6cf5a7146102b1575b600080fd5b61006e6004803603602081101561006757600080fd5b50356102f4565b60405180846001600160a01b0316815260200180602001838152602001828103825284818151815260200191508051906020019080838360005b838110156100c05781810151838201526020016100a8565b50505050905090810190601f1680156100ed5780820380516001836020036101000a031916815260200191505b5094505050505060405180910390f35b61011a6004803603602081101561011357600080fd5b50356103be565b60405180878152602001868152602001858152602001848152602001806020018315158152602001828103825284818151815260200191508051906020019080838360005b8381101561017757818101518382015260200161015f565b50505050905090810190601f1680156101a45780820380516001836020036101000a031916815260200191505b5097505050505050505060405180910390f35b6101d4600480360360208110156101cd57600080fd5b50356104a2565b604051808b81526020018a8152602001896001600160a01b03168152602001886001600160a01b03168152602001876001600160a01b031681526020018681526020018581526020018481526020018060200183600281111561023357fe5b8152602001828103825284818151815260200191508051906020019080838360005b8381101561026d578181015183820152602001610255565b50505050905090810190601f16801561029a5780820380516001836020036101000a031916815260200191505b509b50505050505050505050505060405180910390f35b6102ce600480360360208110156102c757600080fd5b50356105a1565b604080519485526020850193909352838301919091526060830152519081900360800190f35b6000818154811061030157fe5b600091825260209182902060039091020180546001808301805460408051601f60026000199685161561010002969096019093169490940491820187900487028401870190528083526001600160a01b0390931695509293909291908301828280156103ae5780601f10610383576101008083540402835291602001916103ae565b820191906000526020600020905b81548152906001019060200180831161039157829003601f168201915b5050505050908060020154905083565b600181815481106103cb57fe5b9060005260206000209060060201600091509050806000015490806001015490806002015490806003015490806004018054600181600116156101000203166002900480601f01602080910402602001604051908101604052809291908181526020018280546001816001161561010002031660029004801561048f5780601f106104645761010080835404028352916020019161048f565b820191906000526020600020905b81548152906001019060200180831161047257829003601f168201915b5050506005909301549192505060ff1686565b600281815481106104af57fe5b6000918252602091829020600a91909102018054600180830154600280850154600386015460048701546005880154600689015460078a015460088b018054604080516101009c8316159c909c026000190190911698909804601f81018e90048e028b018e01909852878a52999c50969a6001600160a01b039586169a948616999590931697919690959094919283018282801561058e5780601f106105635761010080835404028352916020019161058e565b820191906000526020600020905b81548152906001019060200180831161057157829003601f168201915b5050506009909301549192505060ff168a565b600381815481106105ae57fe5b6000918252602090912060049091020180546001820154600283015460039093015491935091908456fea26469706673582212205f5d85a90897321efa565a291b009ad3db29ca8a27446f096009a08f89ea46f964736f6c634300060c0033",
  "immutableReferences": {},
  "source": "// SPDX-License-Identifier: MIT\npragma solidity 0.6.12;\n\nimport {GreenNFT} from \"../GreenNFT.sol\";\n\ncontract GreenNFTDataCommons {\n    //---------------------------\n    // Storages\n    //---------------------------\n    Project[] public projects;\n\n    Claim[] public claims;\n\n    GreenNFTMetadata[] public greenNFTMetadatas;\n\n    GreenNFTEmissonData[] public greenNFTEmissonDatas;\n\n    //---------------------------\n    // Objects\n    //---------------------------\n    enum GreenNFTStatus {\n        Audited,\n        Sale,\n        NotSale\n    }\n\n    struct Project {\n        address projectOwner;\n        string projectName;\n        uint co2Emissions;\n    }\n\n    // @notice - CO2 reduction claim from a project\n    struct Claim {\n        uint projectId; // This is projectId for the Project struct (Index is projectId - 1)\n        uint co2Reductions;\n        uint startOfPeriod; // e.g). 12:00 UTC, Jan 1, 2022\n        uint endOfPeriod; // e.g). 12:00 UTC, Dec 31, 2024\n        string referenceDocument; // IPFS hash\n        bool audited; // auditing status\n    }\n\n    /// @notice - Metadata of a GreenNFT of a project\n    struct GreenNFTMetadata {\n        // [Key]: index of array\n        uint projectId;\n        uint claimId;\n        // This is claimId for the Claim struct (Index is claimId - 1)\n        GreenNFT greenNFT;\n        address projectOwner;\n        address auditor;\n        uint timestampOfissuedDate; // e.g). 15:00 UTC, Sep 12, 2021\n        uint startOfPeriod; // e.g). 12:00 UTC, Jan 1, 2022\n        uint endOfPeriod; // e.g). 12:00 UTC, Dec 31, 2024\n        string auditedReport; // IPFS hash\n        GreenNFTStatus greenNFTStatus; // \"Audited\" or \"Sale\" or \"Not Sale\"\n    }\n\n    // @notice - Emission data of a GreenNFT of a project\n    struct GreenNFTEmissonData {\n        // [Key]: index of array\n        uint co2Emissions;\n        uint co2Reductions;\n        uint carbonCredits; // CO2 emissions - CO2 reductions\n        uint buyableCarbonCredits;\n    }\n\n    //---------------------------\n    // Events\n    //---------------------------\n}\n",
  "sourcePath": "/home/saicharith/dev/carbon-credits-marketplace/smart-contract/contracts/commons/GreenNFTDataCommons.sol",
  "compiler": {
    "name": "solc",
    "version": "0.6.12+commit.27d51765.Emscripten.clang"
  },
  "schemaVersion": "3.4.16",
  "updatedAt": "2024-05-06T06:44:06.345Z",
  "devdoc": {
    "kind": "dev",
    "methods": {},
    "version": 1
  },
  "userdoc": {
    "kind": "user",
    "methods": {},
    "version": 1
  }
}